:020000040800F2
:1000000018D901209D010008A5010008A7010008DA
:10001000A9010008AB010008AD01000800000000C4
:10002000000000000000000000000000AF01000818
:10003000B101000800000000B3010008BD6A00081B
:10004000B7010008B7010008B7010008B7010008B0
:10005000B7010008B7010008B7010008B7010008A0
:10006000B7010008B7010008B70100082113000814
:10007000B701000839130008B7010008451300084C
:1000800051130008B7010008B7010008490D000826
:10009000310D00083D0D0008B7010008B701000848
:1000A000B7010008B7010008B7010008B701000850
:1000B000B70100085D6B0008B7010008B701000830
:1000C000B7010008B7010008B70100087969000806
:1000D000B7010008B7010008B7010008B701000820
:1000E000B7010008B7010008B7010008B701000810
:1000F000B7010008B7010008B7010008B701000800
:10010000B7010008B7010008B701000891690008AD
:1001100019730008B7010008B7010008696D0008ED
:10012000B70100085D130008691300088113000877
:10013000B70100080000000000000000B70100083F
:10014000B7010008B7010008B7010008B7010008AF
:10015000B7010008B7010008B7010008B70100089F
:10016000B7010008B7010008B7010008B70100088F
:10017000B70100081D65000800000000B701000875
:10018000B7010008B7010008DFF80CD000F072FCDE
:1001900000480047059F000818D9012006488047FD
:1001A00006480047FEE7FEE7FEE7FEE7FEE7FEE75C
:1001B000FEE7FEE7FEE7FEE7156B00088901000891
:1001C00010B5431A934209D28318881803E010F837
:1001D000011D03F8011D521EF9D210BD40EA0103B2
:1001E0009B0703D009E008C9121F08C0042AFAD2ED
:1001F00003E011F8013B00F8013B521EF9D210BD9B
:10020000D2B201E000F8012B491EFBD27047002258
:10021000F6E710B513460A4604461946FFF7F0FF05
:10022000204610BD10B5044604E00B7800F8013BF1
:1002300003B1491C521EF8D2204610BD10B5002251
:1002400000E0521C835C8C5CA34201D1002BF8D1EE
:10025000D8B2E1B2401A10BD10B54843044609F0C7
:100260008BFE002805D00021002C02D0641E015511
:10027000FAE710BDF0B480EA0102D40F4200B2EBFD
:10028000410F02D20246084611464A0042D0C30D31
:10029000DDB2C1F3C752AD1A202D35DAC1F3160114
:1002A00041F4000204B15242C5F1200602FA06F1FF
:1002B0002A411044B3EBD05F23D0C4B1012DA0EB91
:1002C000C35009DCF0BC4FF0004202EAC352DBB27B
:1002D00000F5000000F0F2BA400000F1807000EB81
:1002E000C350A0F1807040EAD170490009E049088C
:1002F00041EAC071A0EBC35000F50000400800EBDC
:10030000C350F0BC00F0D1BA6142012202EB4101BE
:10031000001BF6E7F0BC704781F00041AAE780F0CF
:100320000040A7E780EA010210B502F00043400058
:1003300022D04A001FD0010E01EB1261C0F356001B
:10034000C2F3560240F4000042F40002A0FB022077
:1003500000047F39140400D0401C50EA124001D43C
:100360004000491EC2B20C0604EBD010401C4008ED
:10037000802A02D003E0002010BD20F001000029F7
:1003800000DA0020184310BD30B480EA010202F008
:10039000004530F0004221F0004013D090B1C30D71
:1003A000D40DC2F31601C0F31600E41A41F40001A3
:1003B00040F400027D34914201D3641C00E0490006
:1003C000002C02DA30BC002070474FF400000023FC
:1003D000914201D3891A034340084FEA4101F7D102
:1003E00051B1914202D14FF0004105E002D24FF0ED
:1003F000010101E06FF0010103EBC450284430BC5F
:1004000000F053BA420005D0C0F3C75252429142A5
:1004100001DC0020704700EBC15070472DE9FE4F12
:10042000804681EA0300C00F0C46009021F0004195
:1004300023F00045B8EB0200A94105D24046214611
:1004400090461C460B46024623F00040104347D01E
:10045000270DC7F30A00C3F30A510290401A019016
:1004600040286BDAC3F3130040F4801B00989246D7
:1004700020B10023D2EB030A63EB0B0B0198594622
:10048000C0F14002504600F0DFF906460D465046E6
:100490005946019A00F0F7F910EB08006141002479
:1004A00087EA115284EAE7731A4340D0009A62B394
:1004B000019A012A4FEA075215DC001B61EB020189
:1004C0004FF0004202EA0752CDE90042001C41F51C
:1004D000801132462B4600F02EFA03B0BDE8F08FB3
:1004E00040462146F9E7001B61EB0201001C41F583
:1004F000801300185B412018A2F5001747EB030199
:1005000040EAD570B6196D4111E06D084FEA360624
:1005100045EAC0754FEA0752001B61EB0201001C5F
:1005200041F5801149084FEA300000195141324627
:100530002B4603B0BDE8F04F00F0EEB90098012261
:1005400040000023D0EB020263EBE07300982146E9
:100550004FEAE074B8EB000061EB0401E9E783F0D7
:1005600000435BE781F0004158E72DE9FE4F81EA47
:10057000030404F0004421F0004100944FF0000B0C
:1005800023F0004350EA01045ED052EA03045BD03A
:10059000C3F30A54C1F30A552C44A4F2F334019472
:1005A000A0FB0254C1F3130141F48011C3F3130300
:1005B00043F4801301FB024400FB034E840A970AB4
:1005C00044EA815447EA8357A4FB076802958D0AE1
:1005D00005FB07854FEA932C04FB0C542705029D6D
:1005E0004FEA065847EA1637B5EB08056EEB070CDD
:1005F000870E920E47EA811742EA8312A7FB020197
:10060000B6EB0B0164EB00042B0D43EA0C335E18D0
:1006100044EB1C50DA465146E7FB0201C5F31304D4
:100620004FEA0B3343EA14534FEA0432019C43EA86
:100630000603A4F10C040294009CCDE900B400F080
:100640007AF903B0BDE8F08F00200146F9E72DE903
:10065000F04D81EA030404F0004B21F000451446FC
:100660004FF0000A23F0004150EA050220D054EA7E
:1006700001021DD0C5F30A570246C5F31303C1F3A7
:100680001300C1F30A5640F4801543F48013A7EB1E
:100690000608101BD64608F2FD3873EB050002D39E
:1006A00008F1010801E092185B41B8F1000F03DA8C
:1006B00000200146BDE8F08D00204FF48011064671
:1006C00084460EE0171B73EB050705D3121B63EB83
:1006D000050306434CEA010C49084FEA3000921822
:1006E0005B4150EA0107EDD152EA030012D082EAE1
:1006F000040083EA0501084305D0101BAB4106D274
:100700000122002306E000224FF0004302E06FF0D8
:10071000010253101AEB06004CEB085110EB0A00D3
:1007200041EB0B01BDE8F04D00F0F6B870B521F0DB
:10073000004303430CD0C1F30A550024D5EB040554
:1007400064EB0403D617AD1AB34102DB0020014667
:1007500070BD201841EB025170BDC10F80EAE070FE
:100760000844CA079623002100F0A8B89623002267
:10077000114600F0A3B80EB540F2334102910021BA
:10078000CDE900110A460B4600F0D5F803B000BDD4
:1007900020F00040C10DC0F3160040F400007F2996
:1007A00001DA00207047962903DCC1F19601C840A8
:1007B0007047963988407047C1F30A5210B5C1F3AB
:1007C000130140F2FF3341F480119A4201DA002014
:1007D00010BD40F233439A42A2F2334203DC52424C
:1007E00000F041F810BD904010BD00F0004230F024
:1007F00000400AD0C10D01F56071C0F3160042EA55
:100800000151C2084007114370470020014670475C
:1008100001F0004330B421F0004150EA010206D05B
:100820000A0DA2F56072C1F31301002A02DC30BC8C
:1008300000207047440F44EAC104C100E01830BCF6
:1008400000EBC25000F031B8202A04DB203A00FA55
:1008500002F1002070479140C2F1200320FA03F317
:10086000194390407047202A04DB203A21FA02F015
:100870000021704721FA02F3D040C2F120029140DA
:10088000084319467047202A06DBCB17203A41FA65
:1008900002F043EAE07306E041FA02F3D040C2F10D
:1008A000200291400843194670470029A8BF7047AD
:1008B000401C490008BF20F00100704710B4B0FA96
:1008C00080FC00FA0CF050EA010404BF10BC704731
:1008D00049B1CCF1200421FA04F411FA0CF118BF4B
:1008E000012121430843A3EB0C01CB1D4FEA00611A
:1008F0004FEA102042BF002010BC704700EBC350ED
:1009000010440029A4BF10BC7047401C490008BF18
:1009100020F0010010BC704710B5141E73F10004E4
:1009200008DA401C41F1000192185B411A4301D1E1
:1009300020F0010010BD2DE9F04D92469B4611B10B
:10094000B1FA81F202E0B0FA80F220329046FFF76D
:100950007BFF04460F4640EA0A0041EA0B0153467A
:100960005A46084313D0114653EA010019D0C8F182
:1009700040025046FFF777FF05460E46504659465F
:100980004246FFF761FF084305D0012004E02046FE
:100990003946BDE8F08D0020054346EAE0762C4359
:1009A00037430A986305E40AA0EB08000022FD0A19
:1009B00044EA47540A3002D500200146E9E7010520
:1009C00010196941DDE9084500196941BDE8F04D9C
:1009D000A2E72DE9F04D00231A461B1A8A4103DBDA
:1009E00000200146BDE8F08DC1F30A52C1F31301A6
:1009F00041F480154FF0000BD10702D100186D4172
:100A0000521E0027044640F2FF11384601EB620AED
:100A10003E468046024600204FF48011FFF723FF38
:100A2000C2197141BB1846EB0100B4EB030C75EB26
:100A3000000C04D3E41A65EB000517460E46241992
:100A400008F101006D4180463428E3DDF91946EBD9
:100A50000600091BA84103D24FF0FF32134601E004
:100A6000002213461BEB070046EB0A51BDE8F04D90
:100A7000FFF752BF064C074D06E0E06840F0010367
:100A800094E8070098471034AC42F6D3FFF780FB98
:100A900060A7000880A700080EB5C10F80EAE070CB
:100AA0000844CA07002140F233438DE80E000A468D
:100AB0000B46FFF740FF03B000BD70B5C1F30A520B
:100AC00001F000450024C1F3130140F2FF3341F46B
:100AD00080119A4201DA002070BD40F233439A42FD
:100AE000A2F2334203DC5242FFF7BDFE00E0904029
:100AF0002C43F1D0404270BD70B58C1810F8015BEA
:100B000015F0070301D110F8013B2A1106D110F8A6
:100B1000012B03E010F8016B01F8016B5B1EF9D1AA
:100B20002B0705D40023521E0DD401F8013BFAE730
:100B300010F8013BCB1A921C03E013F8015B01F89B
:100B4000015B521EF9D5A142D8D3002070BD000030
:100B500010B5806B90F83D10252906D05FF0150187
:100B600080F83D1001F0E6F910BD3521F8E710B529
:100B7000806B042180F83D10016C41F0020101649A
:100B800001F0DAF910BD10B5806B01F0D4F910BD99
:100B9000434910B5D1F8042322F44032C1F80423AC
:100BA000D1F8042343681A43C1F8042301684A6852
:100BB00022F480724A6001684A68036942EA0322AB
:100BC0004A6001684A6822F040724A6001684A68D7
:100BD00083681A434A6001688A6822F400628A6066
:100BE00001688A68C3681A438A6001688A6822F0CB
:100BF00070628A6001688A68036B1A438A600168C0
:100C00008A6822F040528A6001688A68C36A1A437F
:100C10008A6001688A6822F002028A6001688A6834
:100C2000836942EA43028A60416A002901684A688E
:100C30000FD042F400624A6001684A6822F46042C0
:100C40004A6001684A68174C836A04EB43331A43CD
:100C500001E022F400624A600168CA6A22F470026C
:100C6000CA620168CA6A038C0F4C04EB03531A432F
:100C7000CA6201688A6822F400728A6001688A6820
:100C8000C36942EA43228A6001688A6822F480626A
:100C90008A6001688A68406942EA8020886010BDE5
:100CA0000020014000E0FFFF0000F0FF2DE9F041CF
:100CB0000E4D0D4F06462C6D286E57F82410FFF789
:100CC0002BFB014647F824603046FFF7D3FA28662D
:100CD000601C41F27071884201D2641C00E0002463
:100CE0002C65BDE8F08100003CD500209401002077
:100CF0002DE9F0410D4D0C4F0646EC6CE86D57F8B0
:100D00002410FFF709FB014647F824603046FFF73F
:100D1000B1FAE865601CB0F5966F01D2641C00E082
:100D20000024EC64BDE8F0817CC200209401002026
:100D3000014801F01BBA0000A8030020014801F09F
:100D400015BA0000A8030020014801F00FBA000006
:100D5000A803002010B54FF4D872036802EB01120B
:100D60009B5813F00404436B9C600468436BA458C5
:100D70005CD0E4085C6003689A58436B02F002029E
:100D8000DA604FF4DA72036802EB01129B58446B8D
:100D900003F00F03236103689A58436BC2F30722E1
:100DA0005A634FF4DC72036802EB01129B58446BE8
:100DB000DBB2636103689B58446BC3F30723A361F1
:100DC00003689B58446BC3F30743E36103689A5875
:100DD000436B120E1A624FF4DE72036802EB0112CB
:100DE0009B58446BDBB2636203689B58446BC3F34C
:100DF0000723A36203689B58446BC3F30743E36272
:100E000003689A58436B120E00291A63016810D0C8
:100E10000A6942F020020A6101684A6922F0100260
:100E20004A6190F8381022290CD024E0640D1C602F
:100E3000A1E7CA6842F02002CA6001684A6922F04C
:100E40000202EDE701684A6922F480724A61016892
:100E50004A6922F400724A6101684A6922F4806298
:100E60004A6101684A6922F400624A6101684A697C
:100E700022F400424A6190F83810322906D001214C
:100E800080F8381001F060FB002010BD1221F7E758
:100E900010B501684A6922F001024A6190F83810E1
:100EA000122918D101684A6922F480724A610168E6
:100EB0004A6922F400724A6101684A6922F4806238
:100EC0004A6101684A6922F400624A6101684A691C
:100ED00022F400424A6190F83810322906D00121EC
:100EE00080F8381001F014FC002010BD2221F7E733
:100EF000002070470020704710B5074C05480022BD
:100F00000649206006F0C2FC0549206806F0B8FCDE
:100F1000002010BD880400202C000020AC08002018
:100F2000AC06002010B507F019FE0348006806F073
:100F30008BFC002010BD00002C00002010B5054CDB
:100F40000A460146206806F0A1FC2068BDE8104072
:100F500006F0CABC2C00002010B500F0AFF800F07D
:100F60006DF8BDE8104000F01BB900000148406872
:100F7000704700007800002010B508F0A5FE144866
:100F800000F0E7FB05F00CF84FF47A7002F01AFC61
:100F90001048114C90F8FC01032812D004F0D6FF41
:100FA00004F0BEFF0D482061094800F0F0FB0C483A
:100FB0000021016001710B48C0F8A013C0F8A41310
:100FC00010BD0948206107F0BBFC0120207010BD56
:100FD000901700208804002064000020590F0008AA
:100FE0007C2800209C570020F911000802480121AC
:100FF00001700021416070478000002002480121FB
:10100000017000214160704778000020014800789D
:10101000704700007800002010B5074C1021606870
:1010200000F008FA606810306060B0F5007F02D30D
:1010300000202070606010BD800000207FB5104C43
:1010400060688168684600F021FB0E4D0198E968F0
:10105000884208D000F005FB019800F083FB0128CE
:1010600002D00198E8607FBD6068083000F039FB6D
:1010700060688168684600F009FB0198EAE70000B3
:10108000901700206400002010B50A4C606800F042
:10109000E8FA6068401C6060B0F5805F09D300200A
:1010A0002070054800F0E0F9BDE81040024800F06B
:1010B000EFB910BD78000020901700202DE9F0470F
:1010C000314F40F21D2197F8A40300F0030048437C
:1010D000A7F5804101EBC00402F036FD2B4E05461A
:1010E000306808F0D7FF4FF4805840F6FF7940454C
:1010F00008D34A462146306808F099FF4FF48751DB
:1011000041F80480224E706888B904F58050D0F808
:10111000E010B9B1202202702A0E02742A0CC273A8
:101120002A0A82734573204600F094F8B0604FF4A9
:10113000875001597068814204D02044B26800F0A1
:1011400077F8B06004F58054D4F8E000706048454A
:1011500018D3280E2075280CE074280AA074657432
:10116000B068010E2176010CE175010AA175607568
:10117000012084F8E400D7F8A403401CC7F8A403B6
:1011800000207060BDE8F0879C5700201000002010
:10119000640000200148006900470000640000204E
:1011A00038B5134D40F21D2195F8A00300F003005F
:1011B0004843A5F5804101EBC00101F5805494F846
:1011C000E400002812D0E02000900A4823464FF4A3
:1011D0008052406800F0ADFB002084F8E400C4F8C1
:1011E000E000D5F8A003401CC5F8A00338BD0000FE
:1011F0009C5700209017002010B50C480B4C00782D
:101200000834012809D1207838B94D2002F01AFDA0
:10121000FFF73AFF4D2002F020FD2078012803D18E
:10122000BDE81040FFF7F8BE10BD000078000020B8
:1012300010B559B1064B491E08D310F8014B544064
:10124000E4B253F8244084EA1222F4E7104610BDB9
:10125000A0A10008014AFFF7EBBF00005F4C0AAAFB
:1012600010B539B1044B491E04D310F8014B54405A
:101270001A5DF8E7104610BD880000200222FFF733
:10128000EFBF000030B503464FF6FF7041F2210476
:1012900010E000BF13F8012B80EA022000220504B1
:1012A00002D584EA400000E04000521CD2B280B275
:1012B000082AF4D3491E89B2ECD230BD10B5846B34
:1012C000204601F04BFA0120207110BD10B5846B4F
:1012D000204601F01EFA0120207110BD10B5846B6C
:1012E000206940F004002061204601F039FA012015
:1012F000207110BD10B5846B206940F0040020619E
:10130000204601F008FA0120207110BD10B5806B55
:1013100001F025FA10BD10B5806B01F0FBF910BD8E
:1013200010B50B2002F083FCBDE81040014801F02D
:10133000FFBA0000A4110020014801F0F9BA000032
:10134000E4120020014801F0F3BA00003413002039
:101350000148806801F0ECBA44120020014801F015
:10136000E7BA0000A038012010B53A2002F05FFC77
:10137000BDE81040014801F0DBBA00000411002074
:1013800010B53B2002F053FCBDE81040014801F0CD
:10139000CFBA00005411002010B504686360836860
:1013A000402B036803D099600068C26010BD9A604A
:1013B0000068C16010BD000010B51B4900201B4C27
:1013C000C86408650866024641F27073C1F85C00A3
:1013D00044F82200521C9A42FAD3154B00224FF4D3
:1013E000966400BF43F82200521CA242FAD3104B6D
:1013F0000022683B43F82200521C0D2AFAD30C4B02
:101400000022343B43F82200521C0D2AFAD34861D3
:101410008861C861086248628862C862086348637C
:101420008863C863086410BD940100203CD5002087
:101430007CC2002030B501242303984201D302204E
:1014400030BD084A01440244994200D319460023A2
:10145000884205D2157805B11370401C521CF7E77D
:10146000204630BDCC7C002010B5040002D060685E
:1014700010B106E0022010BD012010BD616008F02F
:101480006DFC606801690029F8D108F067FCF3E79A
:101490002DE9F04F9BB004002ED0E02008F06CFD49
:1014A000179048B34FF0000BCDF808B0CDF80CB052
:1014B000CDF810B0CDF814B0CDF81CB0CDF820B0F8
:1014C000CDF824B0CDF828B05E461820C4F800B09E
:1014D00008F052FD6060466160684FF0FF3AB14627
:1014E00006616568CDE9136AC84600270BA902A802
:1014F000179A00F009F942E002201BB0BDE8F08F16
:101500000BA902A8179A00F0FFF8012F37D10C9809
:101510002968884208D10398A0F57061FF3903D08B
:101520009DF82C00FF282AD103985F46401ECDF875
:101530001CB0CDF824B0CDF828B00890B0F5805F8D
:1015400000D3089707A8179900F0AFF8DDE9081055
:1015500000EBC110A8602868824501D98246A946DF
:10156000864201D20646A846182008F005FD2861EB
:1015700045612D692F612068401C00272060039879
:1015800000F0F0F801281DD09DF82C00FF2819D09C
:101590009DF83C00B0B12FB90C9828600398C001A9
:1015A0000127686010991498814203D2039814911E
:1015B000C001129011991398814203D90398139195
:1015C000C00101900398401C0390B0F5006F97D3C1
:1015D000206860B36D69286908F0C0FBA560606889
:1015E0002861D4E9010141612068012825D019D979
:1015F0006168A9B1A06898B1814211D00A680368F6
:101600009A420DD140684860A0684069A0600069B6
:1016100008F0A4FBD4E901010861D4E901014161AA
:10162000C4E90189179808F099FB012065E7606813
:1016300008F094FBC4F804B0D6E7019912988842E8
:10164000F0D96168486007A8019900F01FF807A861
:10165000179900F02AF8DDE9081000EBC110A86026
:10166000E0E710B5B0F5805F01D3022010BD04465D
:10167000002003461A46214604F0AEFC012801D0A2
:10168000012010BD204600F04CF9EEE7B1F5002F27
:1016900001D302207047CB09002201F07F01C0E98D
:1016A0000023C0E902120120704730B5044687B01C
:1016B00000200D46A0602A466946204600F024F826
:1016C0009DF80000FF28A06806D0401CA06080287C
:1016D000F1D3401EA06001E00128FAD807B0012034
:1016E00030BD0168C909C90180310160B1F5002F21
:1016F00001D3002101600120704700000149016011
:1017000001207047CC7C00207CB50D46E021CDE95E
:10171000002114460FC800F0C1F8032817D0207824
:1017200028706078D4F8021040EA01206860607E7A
:101730002874607BD4F80E1040EA01206861607C58
:10174000D4F8121040EA0120A86101207CBD0220DB
:101750007CBD10B5044604F029F92046FFF798FE39
:10176000012010BDB0F5805F08D2064AC10800F024
:101770000700515C01228240114201D001207047D4
:1017800000207047CC7C0020C009FFF7EBBF70B58C
:10179000040020D02068002500284FF018001CD03D
:1017A00008F0EAFB6168086161684161606800698E
:1017B00060600561606841690968491C0160606892
:1017C0004169896841606068001DFFF78AFF002356
:1017D0004FF4805611E0022070BD08F0CDFB606030
:1017E0000561606845616168012008606068456066
:1017F000EDE76068001DFFF774FF60684068FFF761
:10180000C3FF012804D118465B1C9BB2B042F0D341
:101810006068416881606068C5602068401C206025
:10182000012070BD10B5002100F5005210F1040038
:1018300082F8841180F8083480F80C54012B04D10C
:1018400092F88441641C82F88441491CC9B200F5B5
:1018500082600829EED3012010BD7CB5DDE9064584
:10186000CDE9004504F04CFC08B102207CBD01200C
:101870007CBD30B50C4687B00146154602A8FFF77F
:1018800005FF0DF1080CCDE900459CE80F00FFF7BE
:10189000E4FF012800D0022007B030BD7CB5DDE9AF
:1018A0000645CDE9004504F0D9FD08B102207CBD14
:1018B00001207CBD30B50C4687B00146154602A814
:1018C000FFF7E4FE0DF1080CCDE900459CE80F00A0
:1018D000FFF7E4FF012800D0022007B030BD000070
:1018E000B0F5805F01D302207047084B03EBD002B4
:1018F000012300F0070083401078012903D09843AA
:101900001070012070471843FAE70000CC7C0020DB
:10191000012070470020401CC0B20828FBD30120E2
:101920007047B0F5805F01D3022070470121FFF7B7
:10193000D7BF2DE9F04387B00F46044681681D46A6
:1019400090460126DDF8389002A8FFF79FFECDE90A
:1019500000780DF1080C9CE80F0000F04EF801280B
:1019600003D0022007B0BDE8F08320681821000EE4
:1019700028712068000CE8702088000AA870207880
:1019800068706068000E28726068000CE871A088BA
:10199000000AA87120796871E068000E2873E06879
:1019A000000CE872A089000AA872207B68722846A1
:1019B000FFF764FC6876CDE9005902AF97E80F00A5
:1019C00000F027F8012800D00226E068401CE06003
:1019D000A068401CA060B0F5002F01D30020A060DB
:1019E00004F10803A068FFF7CFFE012801D03046BC
:1019F000B8E71846FFF775FEF4E77CB5DDE9064564
:101A0000CDE9004504F026FB08B102207CBD012091
:101A10007CBD7CB5DDE90645CDE9004504F0C6FC9A
:101A200008B102207CBD01207CBD0000002229B14C
:101A3000012922D0022923D04FF440720B2800D96B
:101A4000001D11490B6823F440730B600B681343AE
:101A50000B600A6822F0F8020A600A68F82393FA19
:101A6000A3F3B3FA83F3984040F0020002430A6004
:101A7000086840F48030086070474FF48072DDE7FA
:101A80004FF40072DAE70000103C0240064A136887
:101A900023F44073136013681360136843F0010369
:101AA0001360017070470000103C0240084910B5F7
:101AB0000C6824F440740C600C6844F440740C60AE
:101AC0000C6844F001040C600260436010BD00002B
:101AD000103C0240074A136823F4407313601368F4
:101AE00043F480731360136843F0010313600180B3
:101AF00070470000103C0240074A136823F440730B
:101B00001360136843F400731360136843F0010318
:101B10001360016070470000103C024015490868DE
:101B2000C206154801D5102242750A68920603D5EF
:101B3000427D42F0080242750A68520603D5427D92
:101B400042F0040242750A68120603D5427D42F053
:101B5000020242750A68D20503D5427D42F00102B5
:101B600042750968890703D5417D41F0200141751F
:101B7000704700000C3C0240FC38012070B5044660
:101B800001F0E2FF06190A4D07E0601C05D001F0E4
:101B9000DBFFB04201D3032070BD2868C003F4D43A
:101BA000286810F4F970F7D0FFF7B8FF012070BD76
:101BB0000C3C024010B5D1E9003443EA04230C89FF
:101BC000097B240444EA01610B43102A02D0C3625A
:101BD000002010BDC360FBE710B5D1E9003443EA33
:101BE00004230C89097B240444EA01610B43102A75
:101BF00002D08362002010BD8360FBE710B5D1E9FD
:101C000001231A43D1E9033423431A434B6942EABF
:101C100043228B69096842EA433242F008021029E4
:101C200002D00262002010BD0260FBE72DE9FC41FA
:101C30004FEA000308F08AF80028FBD01C4E00226F
:101C40006D4600BF36F8120025F81200521C92B201
:101C5000042AF7D325F8113001F008FE02210B20E9
:101C6000FFF7E4FE01F0BAFD01F000FE08F06EF8A7
:101C70000028FBD00024DFF83C80F327C8F8007070
:101C800035F8142006EB44010023012001F0B0FDDB
:101C900008F05CF80028FBD0641CA4B2042CEDD33F
:101CA00001F09CFD08F052F80028FBD0BDE8FC8153
:101CB00000000E080C3C02402DE9FC4704460D468E
:101CC0000020074669460F54401CC0B20528FAD3CD
:101CD000DFF834814FF4FA6A98F80000202810D019
:101CE00020248DF8004001208DF801008DF802704D
:101CF00002208DF8030023208DF8040053460522AE
:101D000078E020780521DFF80491B1EB501F22D153
:101D1000617800F0070041EA002039F8101025F83A
:101D2000101023788DF8003062788DF8012015F8B6
:101D300010108DF8021035F810001A44000A8DF8C2
:101D40000300084410448DF80400534605226946F8
:101D50002F4803F06BFD20780421B1EB501F37D1E1
:101D6000617800F0070041EA0026608825F8160037
:101D700006212846FFF786FAE88035F81600314636
:101D8000FFF754FFE8880321FFF750FF39F81600EA
:101D900025F816001D48801D0088E88022788DF8FF
:101DA000002061788DF8011015F816008DF80200FA
:101DB00035F8163011441B0A184408448DF80330D6
:101DC0008DF80400534605226946114803F02EFDA4
:101DD0002078F42434EA000011D18DF800408DF809
:101DE00001708DF80270C8238DF803708DF80440DF
:101DF00005226946064803F019FD88F8004098F866
:101E00000000BDE8FC8700002402002000000E084E
:101E1000A812002030B590F83C20012A19D00122E8
:101E200080F83C200A6807230468092A13D9E5686A
:101E30000A3A02EB420293409D43E5600A788B68C0
:101E40000A3A02EB420293400268D4682343D3600B
:101E500010E0022030BD256902EB420293409D4311
:101E600025610A788B6802EB42029340026814698C
:101E7000234313614A681F23072A12D20468656B43
:101E8000521E02EB820293409D4365630A790B6800
:101E9000521E02EB820293400268546B2343536349
:101EA00025E004680D2A11D2256BD21F02EB8202B5
:101EB00093409D4325630B790A68DB1F03EB830383
:101EC0009A4003681C6B22431A6310E0E56A0D3ADE
:101ED00002EB820293409D43E5620B790A680D3B59
:101EE00003EB83039A400368DC6A2243DA62104AF8
:101EF0000368934208D10B68122B05D1D2F8043342
:101F000043F48003C2F80433036893420AD109689A
:101F1000102901D0112905D1D2F8041341F4000190
:101F2000C2F80413002180F83C10084630BD0000C0
:101F30000020014070477047704710B5040003D07F
:101F400094F83D0010B104E0012010BD204600F0DF
:101F50000FF8022084F83D002046FEF719FE00200D
:101F60002064012184F83D1084F83C0010BD00007D
:101F7000F0B506460068184985B0884229D117484F
:101F8000016841F4806101604FF470700327CDE96E
:101F90000007002569460295114801F0B9FC124C72
:101FA000104820604FF08060C4E901050014C4E9C6
:101FB0000350400060618000A0614011C4E9070542
:101FC000C4E90957E5622046256301F08DFBB4633F
:101FD000A66305B0F0BD0000002201404438024075
:101FE0000014024028640240A038012070B5044665
:101FF00090F83C0000250E46012824D0012084F8EA
:102000003C002068416841F080614160206881683F
:1020100041F480718160A16B17481346C863A16BBE
:10202000164832460864A16B154888642168A06B85
:102030004C3101F091FB122084F83D00206881684A
:10204000C90702D00CE0022070BD816841F0010197
:1020500081604FF4077000BF6D1CADB28542FAD9A4
:10206000E06A20B92068816841F0804181600020E9
:1020700084F83C0070BD0000510B0008870B00087D
:102080006F0B0008F0B50A7D01209040344A1368B8
:1020900043F001031360136823F47C531360136847
:1020A0004C6A43EA042313602D4B1C331C688443A1
:1020B0001C602B4D2B4CCE690C35A6B92E6886437F
:1020C0002E608F894E6867F31F464F6904EBC70780
:1020D000C7F840660F890E6867F31F464F6904EB27
:1020E000C707C7F84466CE69012E14D12E6806438F
:1020F0002E600E884D6866F31F454E6904EBC606D8
:10210000C6F840560E89CD6866F31F454E6904EB4C
:10211000C604C4F84456124C8D69241D002D256850
:1021200006D0054325600E4C0D69143415B104E04A
:102130008543F7E72568854325600D69012D02D1A8
:10214000256805432560096A012902D11968014300
:102150001960106820F0010010600020F0BD000040
:1021600000660040006000407047000010B5044663
:1021700000684169C943C90714D182685F49914326
:102180007AD0002183685E4A9A4377D00022836820
:102190005C48984374D000201143014302D020468C
:1021A000FEF776FE2168C868496910F0030FC1F395
:1021B000400104D019B100212046FEF7CBFD206874
:1021C0000169406911F0030FC0F3001004D018B189
:1021D00001212046FEF7BEFD20688169426911F0A9
:1021E000010F4369C2F30022C3F3C03309D042B1E7
:1021F0003BB1E16B41F00101E163816921F0010133
:102200008161206881694269C1F340014369C2F379
:102210004022C3F3C03349B142B13BB1E16B41F05D
:102220000201E163816921F0020181612068816915
:102230004269C1F380014369C2F38022C3F3C03312
:1022400049B142B13BB1E16B41F00401E163816905
:1022500021F0040181612068816911F0700F11D0B3
:1022600000234169C1F3C0224169C1F3C0315BB1B0
:102270002AE001E002E003E0012183E7012286E792
:10228000012089E70123ECE7F2B1E9B1816901F0AE
:102290007001402926D006DC102909D020290BD056
:1022A00030290DD11AE0502920D0602908D121E031
:1022B000E16B41F0080102E0E16B41F01001E163E4
:1022C000816921F070018161E06B002805D0012057
:1022D00084F838002046FFF747FF10BDE16B41F05E
:1022E0002001ECE7E16B41F04001E8E7E16B41F0F0
:1022F0008001E4E7E16B41F48071E0E70300000452
:1023000000030008000003102DE9F041040003D091
:1023100094F8380018B105E00120BDE8F0812046AE
:1023200000F094F8022084F838002068016821F059
:10233000020101602068016841F00101016001F0C3
:1023400003FC002500F10A07032603E001F0FCFB73
:10235000B84263D220684068C007F7D0206841685F
:10236000C90768D0A1690129016840D021F0800126
:102370000160E0690128206801683BD021F040013C
:102380000160206A01282068016836D021F0200110
:102390000160606A01282068016831D021F01001D5
:1023A0000160A06A0128206801682CD021F0080192
:1023B0000160E06A01282068016827D021F004014B
:1023C0000160D4E902010843D4E90412114308432F
:1023D0006168491E08432168C8612068016821F0CE
:1023E0000101016001F0B0FB00F10A071BE041F0C0
:1023F0008001BDE741F04001C2E741F02001C7E79D
:1024000041F01001CCE741F00801D1E741F00401AF
:10241000D6E700BF01F098FBB84204D304F8386F48
:102420000320657079E720684068C007F2D1206812
:102430004068C00703D0042084F838006CE7E563E7
:10244000012084F83800002067E7000000B500682C
:10245000184985B088422BD11748016841F00071B6
:1024600001604FF440700090022001900020029023
:1024700003200390092004906946104801F048FAAF
:1024800000220521132001F0F3FB132001F0E5FBEE
:1024900000220621142001F0EBFB142001F0DDFBEB
:1024A00000221146152001F0E3FB152001F0D5FBB9
:1024B00005B000BD00640040403802400004024006
:1024C00010B590F83820012A01D0122A39D190F89D
:1024D0003920012A35D0012280F8392090F838209F
:1024E000122A29D05FF0220280F838200022C2632D
:1024F00003685C6944F480745C6103685C6944F45B
:1025000000745C6103685C6944F480645C61036826
:102510005C6944F400645C6103685C6944F40044F1
:102520005C6180F8392000680029416906D041F0DB
:1025300010014161002010BD3222D5E741F00201B7
:10254000F7E7022010BD000010B5416B0D4B0A6883
:10255000A2F580646A3C03D10C7EC4F340041C7075
:10256000A2F580644B3C03D1097FC1F380115970FF
:102570000021FFF7A5FF04480068416941F002010E
:10258000416110BD00000020A80300202DE9F05F8C
:10259000044690F839000E46012811D04FF0010989
:1025A00084F8399094F8380022280CD05FF012009B
:1025B00084F8380021688868400106D500250DE0C0
:1025C0000220BDE8F09F3220F2E78868000101D5C3
:1025D000012503E08868C0005DD502254FF4C07076
:1025E00000EB05100A5802F001020A50216B8A68BC
:1025F000EAB327683B581343CA68496842EAC101F5
:102600000B433B50216B0A7C02F00F020A614FF42E
:10261000C271226801EB0511535823F00F03535088
:1026200022685358276B3F693B435350216B91F805
:1026300020304A6942EA03628B8B89691B0443EAB2
:1026400001210A434FF4C473216803EB0513CA50F8
:10265000216B91F830304A6A42EA03628B8D896AB5
:102660001B0443EA01210A434FF4C67300E017E05C
:10267000216803EB0513CA5021680A5842F0010291
:102680000A5001F061FA00EB06080027DFF874A099
:10269000DFF874B018E0042084F83800012090E7D7
:1026A00022681358CF6809883B4343EA41511150CF
:1026B000A8E7701C08D001F047FA404504D3032076
:1026C00004F8380F67707CE78DB12068012D8168B0
:1026D00012D00E4888430028EBD194F838003228F5
:1026E0000DD0484604F8380F0020677069E720686D
:1026F00081682AEA0100EEE72BEA0100EBE72220DD
:10270000F0E70000030000040003000800000310CD
:10271000704770477047704770B54379012B19D0E7
:1027200001264671022303710B4D2C6840F6FE739F
:1027300093409C43D1E900310B43934023432B60EA
:102740002968C02393409943296006710021417193
:10275000084670BD022070BD00740040704770478D
:10276000704710B5040002D0207910B104E00120B8
:1027700010BD204600F008F80220207100202061E2
:1027800001202071002010BD70B5054600681F496A
:1027900086B0884237D11E48016841F0005101607F
:1027A0001B481038016841F00101016010200090C1
:1027B00003200026CDE901066946164801F0A8F875
:1027C000164C154820604FF0606060604020C4E9FE
:1027D000020600012061400060618000A06140119C
:1027E000E0614002C4E908060120A062204600F032
:1027F0007BFFAC60002205211020A56301F038FAB0
:10280000102001F02AFA06B070BD000000740040EC
:102810004038024000000240886002405812002008
:102820002DE9F04104460D461746617900220698CD
:1028300001292FD00126667102212171D4F808C028
:102840002F49CCF83C10D4F808C02E49CCF84010E1
:10285000D4F808C02C49CCF84810D4F80CC02B4947
:10286000CCF83C10D4F80CC02949CCF84010D4F86E
:102870000CC02849CCF848102168D1F800C065B1D7
:102880004CF0805CC1F800C000B3042821D00828B7
:1028900024D121E00220BDE8F0814CF4805CC1F835
:1028A00000C020B1042805D0082808D105E022681E
:1028B000083204E022680C3201E0226810322068FD
:1028C000016841F400510160A0680DE022681432F3
:1028D00004E02268183201E022681C322068016896
:1028E00041F000510160E068394600F035FF206892
:1028F0000168AE403143016000206071CBE7000009
:10290000BD1200080D130008DD120008CD120008EA
:1029100017130008F512000810B5026814680123A7
:1029200003FA01F18C4314600371002010BD000014
:102930002DE9F05FFD490746FC4DFD4E00684A1544
:10294000DFF8E893DFF8E8A3DFF8E0B39302F84C90
:10295000483D60364FF0007E09F118090AF1180A67
:10296000ABF1300B884224D9F049543927E048456F
:1029700034D100BF4FF0080C0AE0DFF8B0C30CF10F
:10298000300C604535D1944602E09C4600E0F446A8
:1029900011EA0C0F70D0016849076DD5016821F06C
:1029A00004010160E1493868884266D9DF494C3941
:1029B00069E0DF49A831884203D9DC495839096800
:1029C00005E0DB4948318842DA49F8D94968A04234
:1029D000D0D0A842CED0B042CCD0C8E75045D2D05B
:1029E0005845D0D0DFF848C30CF1780C6045CAD008
:1029F000C3E7DFF83CC30CF1300C6045C5D0DFF80D
:102A00002CC3ACF1180C6045BFD0DFF824C30CF127
:102A1000900C6045B9D0DFF814C30CF1480C604548
:102A2000B5D1B2E7082222E0504520D058451ED04B
:102A3000DFF8FC8208F17808404518D0DFF8EC8216
:102A400008F13008404512D0B94A303290420BD0DC
:102A5000B64A183A904207D0B54A9032904203D015
:102A6000B24A4832904201D11A4600E072464CEA1E
:102A7000020CC1F800C07DE08AE0AD49A83188426F
:102A80000CD9AA495039D1F800C0A042CAD0A842F6
:102A9000C8D0B042C6D04845C6D1C3E7A4494831E2
:102AA0008842A44933D9D1F80CC0A04205D0A8422D
:102AB00003D0B04201D0484501D1082222E0504560
:102AC00020D058451ED0DFF8688208F178084045CC
:102AD00018D0DFF8588208F13008404512D0944AE7
:102AE000303290420BD0914A183A904207D0904A27
:102AF0009032904203D08D4A4832904201D11A461A
:102B000000E072464CEA020CC1F80CC032E0D1F889
:102B100008C0A04205D0A84203D0B04201D0484529
:102B200001D1082222E0504520D058451ED0DFF8C0
:102B3000008208F17808404518D0DFF8F08108F1EC
:102B40003008404512D07A4A303290420BD0774A52
:102B5000183A904207D0764A9032904203D0734A96
:102B60004832904201D11A4600E072464CEA020C0B
:102B7000C1F808C0F86C40F00100F864042087F840
:102B80003500002087F83400B96C09B13846884711
:102B9000694A66493868D3114FF4800E884224D9B7
:102BA0006249543927E0484534D194460CE0DFF8B7
:102BB0007CC10CF1300C604537D100BF4FF0400CA8
:102BC00002E09C4600E0F44611EA0C0F7ED0416919
:102BD00009067BD5416921F080014161534938687C
:102BE000884253D951494C3956E05149A83188425D
:102BF00003D94E495839096805E04D4948318842A2
:102C00004C49F8D94968A042CFD0A842CDD0B042B3
:102C1000CBD0C8E75045D1D05845CFD0DFF810C150
:102C20000CF1780C6045C9D0C1E7DFF804C10CF1A4
:102C3000300C6045C5D0DFF8F4C0ACF1180C60452D
:102C4000BFD0DFF8ECC00CF1900C6045B9D0DFF8D4
:102C5000DCC00CF1480C6045B5D1B2E7A8421FD0EA
:102C6000B0421DD048451BD0504509D0584507D02B
:102C70002F4A7832904203D02C4A3032904214D1FD
:102C800040220DE01A460BE0724609E02849A831BF
:102C900088421CD925495039D1F800C0A042DDD165
:102CA0004CEA020CC1F800C07BE0214A303290426D
:102CB000E8D01E4A183A9042E4D01D4A9032904221
:102CC000E0D01A4A48329042DED1DBE777E018497B
:102CD00048318842174937D9D1F80CC0A0422ED0CC
:102CE000A8422CD0B0422AD0484528D0504509D01F
:102CF000584507D00E4A7832904203D00B4A303202
:102D0000904201D140221AE0094A303290420BD061
:102D1000064A183A904207D0054A9032904203D0B2
:102D2000024A4832904209D11A4608E058640240EB
:102D300010600240006002400100800072464CEAD0
:102D4000020CC1F80CC02CE0D1F808C0A04224D07D
:102D5000A84222D0B04220D048451ED0504507D0CE
:102D6000584505D0FE4A904202D0FE4A904201D119
:102D7000402212E0FA4A483A90420BD0F94A483AC7
:102D8000904207D0F64A1832904203D0F54A1832E2
:102D9000904201D11A4600E072464CEA020CC1F89A
:102DA00008C0F86C40F00200F864042087F8350091
:102DB000002087F83400B96C09B138468847E949E2
:102DC00038683039E84A8B154FF4802E884223D971
:102DD000E449843926E0484533D194460AE0DFF8D7
:102DE00084C3604536D19C4604E0F44602E000BF4F
:102DF0004FF0807C11EA0C0F7DD0016889077AD5ED
:102E0000016821F002010160D649386830398842F2
:102E100051D9D4497C3954E0D1493031884203D961
:102E2000D0498839096805E0CD4930398842CF4911
:102E3000F8D94968A042D0D0A842CED0B042CCD078
:102E4000C9E75045CFD05845CDD0DFF814C3604511
:102E5000C9D0C4E7DFF814C30CF1400C6045C4D0FE
:102E6000DFF800C3ACF1480C6045BED0DFF8F0C21B
:102E70000CF1180C6045B8D0DFF8E8C20CF1180C62
:102E80006045B5D1B1E7A8421FD0B0421DD048453A
:102E90001BD0504507D0584505D0B14A904202D0CA
:102EA000B04A904216D11A460FE072460DE000BFBC
:102EB0004FF0807209E0AA49303188421CD9A949F3
:102EC0008039D1F800C0A042DDD14CEA020CC1F833
:102ED00000C073E0A54A40329042E6D0A14A483A89
:102EE0009042E2D09E4A18329042DED09D4A18327B
:102EF0009042DDD1D9E76FE09949303988429B494A
:102F00002ED9D1F80CC0A04225D0A84223D0B0427F
:102F100021D048451FD0504507D0584505D0904A8C
:102F2000904202D08F4A904201D11A4613E08F4A54
:102F3000403290420BD08B4A483A904207D0884AA0
:102F40001832904203D0874A1832904201D172461B
:102F500001E04FF080724CEA020CC1F80CC02DE089
:102F6000D1F808C0A04225D0A84223D0B04221D039
:102F700048451FD0504507D0584505D0784A904263
:102F800002D0784A904201D11A4613E0774A403283
:102F900090420BD0734A483A904207D0704A183298
:102FA000904203D06F4A1832904201D1724601E03C
:102FB0004FF080724CEA020CC1F808C0F86C40F087
:102FC0000400F864042087F83500002087F83400F6
:102FD000B96C09B138468847624B3868303B1915DF
:102FE0008A024FF0806E984220D95E4B843B23E0EA
:102FF000484530D14FF0100C08E0DFF868C160455B
:1030000032D18C4602E0944600E0F44613EA0C0FFD
:103010007AD003681B0777D503685B0375D5514BDE
:10302000303B98425FD94F4B7C3B62E04C4B303396
:10303000984203D94B4B883B1B6805E0484B303B1B
:1030400098424A4BF8D95B68A042D3D0A842D1D06D
:10305000B042CFD0CCE75045D3D05845D1D0DFF8DF
:1030600000C16045CDD0C8E7DFF800C10CF1400CCD
:103070006045C8D0DFF8ECC0ACF1480C6045C2D068
:10308000DFF8DCC00CF1180C6045BCD0DFF8D4C010
:103090000CF1180C6045B8D1B5E710211EE0504581
:1030A0001CD058451AD0DFF8B880404516D0DFF85C
:1030B000B480404512D02D49403188420BD0294977
:1030C0004839884207D026491831884203D025491B
:1030D0001831884201D1114600E071464CEA010CDA
:1030E000C3F800C07FE01E4B303398420ED91D4B11
:1030F000803BD3F800C0A042CFD0A842CDD0B04290
:10310000CBD04845CBD1C8E77CE08AE0144B303BBC
:103110009842164B38D9D3F80CC0A04205D0A8422B
:1031200003D0B04201D0484501D1102127E05045DD
:1031300025D0584523D0DFF8288040451FD0DFF840
:10314000248040451BD009494031884214D00549AC
:103150004839884210D00249183188420CD007E023
:1031600088600240886402400400800000600240E1
:10317000FA491831884201D1114600E071464CEA03
:10318000010CC3F80CC02EE0D3F808C0A04205D053
:10319000A84203D0B04201D0484501D110211EE021
:1031A00050451CD058451AD0DFF8B483404516D09E
:1031B000DFF8A883404512D0E949483988420BD04E
:1031C000E6494839884207D0E5491831884203D09A
:1031D000E2491831884201D1114600E071464CEABB
:1031E000010CC3F808C03868016809034DD50068B0
:1031F000000303D55FF0410087F83500396C09B151
:1032000038468847DFF854C34FF400613868ACF1A2
:10321000300C8A024FF0006E604577D9CF4B843B6B
:10322000CEE00368DB0503D4036823F008030360E2
:10323000CA4B3868303B984228D9C84B7C3B2BE0BE
:1032400010211EE050451CD058451AD0DFF81083DD
:10325000404516D0DFF80483404512D0C0494839B4
:1032600088420BD0BD494839884207D0BC49183143
:10327000884203D0B9491831884201D1114600E093
:1032800071464CEA010CC3F800C075E0B44B303312
:1032900098420CD9B14B803BD3F800C0A042CFD0AC
:1032A000A842CDD0B042CBD04845CBD1C8E7AC4B3B
:1032B000303B9842AB4B30D9D3F80CC0A04205D07C
:1032C000A84203D0B04201D0484501D110211FE0EF
:1032D00050451DD058451BD0DFF88482404517D09B
:1032E000DFF87882404513D09E49403188420BD0A8
:1032F0009A494839884207D099491831884203D001
:1033000096491831884202D1114601E052E07146D7
:103310004CEA010CC3F80CC02EE0D3F808C0A04260
:1033200005D0A84203D0B04201D0484501D11021B8
:103330001EE050451CD058451AD0DFF82482404585
:1033400016D0DFF81882404512D0864940318842B5
:103350000BD082494839884207D0814918318842C8
:1033600003D07E491831884201D1114600E07146F0
:103370004CEA010CC3F808C031203DE748452ED186
:103380004FF0200808E0DFF8D481404530D188466E
:1033900002E0904600E0F04613EA080F76D003689A
:1033A000DB0673D503685B0371D560455DD96B4B54
:1033B0007C3B60E06A4B3033984203D9674B883BD3
:1033C0001B6805E0664B303B9842664BF8D95B685A
:1033D000A042D5D0A842D3D0B042D1D0CEE75045FC
:1033E000D5D05845D3D0DFF878814045CFD0CAE753
:1033F000DFF8708108F140084045CAD0DFF85C81F1
:10340000A8F148084045C4D0DFF8548108F11808F5
:103410004045BED0DFF8448108F118084045BAD1D4
:10342000B7E720211CE050451AD0584518D04C4C25
:10343000A04215D0494CA04212D04A49403188429E
:103440000BD046494839884207D04549183188424F
:1034500003D042491831884201D1114600E071463B
:103460004CEA010CC3F800C072E03D4B3033984287
:103470000ED93A4B803BD3F800C0A042D1D0A8422D
:10348000CFD0B042CDD04845CDD1CAE7E6E075E017
:10349000334B303B9842334B2DD9D3F80CC0A0426C
:1034A00005D0A84203D0B04201D0484501D1202127
:1034B0001CE050451AD0584518D0294CA04215D0D0
:1034C000264CA04212D02749403188420BD02349D4
:1034D0004839884207D022491831884203D01F4911
:1034E0001831884201D1114600E071464CEA010CC6
:1034F000C3F80CC02CE0D3F808C0A04205D0A84205
:1035000003D0B04201D0484501D120211CE05045F4
:103510001AD0584518D0124CA04215D00F4CA042DA
:1035200012D01049403188420BD00C4948398842AA
:1035300007D00B491831884203D008491831884216
:1035400001D1114600E071464CEA010CC3F808C0F5
:1035500038680168090307D4796C09E0886402407F
:1035600088600240006002400068000376D5F96B75
:10357000002973D03846BDE8F05F08470368DB05D3
:1035800003D4036823F0100303603868604526D92C
:10359000524B2AE020211DE050451BD0584519D040
:1035A0004F4CA04216D04D4C7C34A04212D04C4916
:1035B000483988420BD049493431884207D04849BC
:1035C0001831884203D045499431884201D11146CF
:1035D00000E071464CEA010CC3F800C073E0404BB8
:1035E000303398420CD93D4B1B1FD3F800C0A0428A
:1035F000D0D0A842CED0B042CCD04845CCD1C9E73B
:10360000374B303B9842374B2FD9D3F80CC0A042F0
:1036100005D0A84203D0B04201D0484501D12021B5
:103620001EE050451CD058451AD02D4CA04217D052
:103630002A4C7C34A04213D02A49403188420BD016
:1036400026493431884207D025491831884203D0B1
:1036500022499431884202D1114601E03CE0714692
:103660004CEA010CC3F80CC02DE0D3F808C0A0420E
:1036700005D0A84203D0B04201D0484501D1202155
:103680001DE050451BD0584519D0154CA04216D00E
:10369000124C7C34A04212D01249403188420BD0E7
:1036A0000E493431884207D00D491831884203D081
:1036B0000A499431884201D1114600E071464CEA32
:1036C000010CC3F808C0F86CF864112087F83500C5
:1036D000002087F834004AE7BDE8F09F0C64024000
:1036E000886002400060024070B5D0B10221446A97
:1036F00080F8351003681A6816490A40D0E90115A8
:103700002943D0E90356354329434569294385694F
:103710002943C5692943056A29431143042C02D072
:1037200005E0012070BDD0E90B242243114319604C
:1037300003685969426A21F007011143042A01D143
:10374000826A114359610021C164012180F835105A
:10375000002070BD3F8014F070B5044690F834002E
:1037600001282DD0012084F83400022084F835008F
:103770002068056825F0010505602046FDF70CFE70
:103780002068016841F0100101602068016841F083
:10379000080101602068016841F0040101602068AF
:1037A000416941F0800141612068016841F00201F6
:1037B00001602068016841F001010160002070BDD6
:1037C000022070BD044901B50868009A10440A68D7
:1037D0008242FCD308BD0000440200200348016877
:1037E00041F000410160002070470000103C0240A1
:1037F0002DE9F0471B4E05461446307D1F4689468D
:10380000012808D0012030754CF250384046FEF7B0
:10381000B5F918B114E00220BDE8F0879DB1012D83
:1038200016D0022D19D022463B464846FEF73EF9F7
:103830004046FEF7A3F90C490A6822F001020A602B
:1038400000213175E8E7E1B24846FEF71FF9EFE7DE
:10385000A1B24846FEF73EF9EAE721464846FEF7A0
:103860004BF9E5E7FC380120103C024006480068AF
:10387000002807DA044805490C3801600449016052
:103880000020704701207047103C0240230167452B
:10389000AB89EFCD70B5194886B0016800292AD1EF
:1038A000012101601648016841F0010101604FF4F7
:1038B000F060009002250024CDE901540C26CDE9EA
:1038C000034669460F4800F023F84DF6B300009018
:1038D000CDE90154CDE9034669460B4800F018F8DC
:1038E0004FF430700090CDE90154CDE903466946AC
:1038F000064800F00DF806B070BD0000080000207A
:103900003838024000100240000C0240001802400B
:103910002DE9F04F0022DFF8E8E101254FF0030B1D
:103920004FF00F0A0B6805FA02F42340A3427DD141
:103930004E68022E01D0122E14D156070F694FEA9D
:10394000D66C07FA0CF9D60800EB8606376A0AFA35
:103950000CF827EA08073762D6F820C04CEA090CB1
:10396000C6F820C0D0F800C056000BFA06F72CEAC3
:10397000070CC0F800C091F804C0D0F800800CF02B
:10398000030C0CFA06FC4CEA080CC0F800C0D1F895
:1039900004C0BCF1010F08D0BCF1020F05D0BCF18E
:1039A000110F02D0BCF1120F1FD1D0F808C02CEAC1
:1039B000070CC0F808C0D1F80CC0D0F808800CFA89
:1039C00006FC4CEA080CC0F808C0D0F804C02CEA89
:1039D000040CC0F804C0D0F804C00C79C4F300147F
:1039E00094404CEA040CC0F804C0C468BC43C460F2
:1039F0008C68B440C6683443C4604C68E40079D530
:103A0000404C266846F4804626609407270F3E4CBB
:103A100022F0030C64440AFA07F6D4F808C82CEA2A
:103A2000060CC4F808C8394EB04200E062E001D18B
:103A300000262DE0364EB04201D1012628E0354E59
:103A4000B04201D1022623E0334EB04201D1032619
:103A50001EE0324EB04201D1042619E0304EB04291
:103A600001D1052614E02F4EB04201D106260FE009
:103A70002D4EB04201D107260AE02C4EB04201D1B2
:103A8000082605E02A4EB04201D1092600E00A26A8
:103A9000BE40D4F808783E43C4F80868DEF80060F9
:103AA00074469E43CEF80060154E361D37689F431E
:103AB00037604F68FF0302D527681F4327604C68B3
:103AC000A40302D534681C4334600D4C08342668C6
:103AD0009E432660261D37689F4337604F68FF026C
:103AE00002D527681F4327604C68A40202D53468BA
:103AF0001C433460521C102AFFF414AFBDE8F08F51
:103B0000003C0140443802400030014000000240C7
:103B10000004024000080240000C02400010024075
:103B20000014024000180240001C02400020024025
:103B3000002402400069084000D0012070470AB10B
:103B40000183704741837047014800687047000057
:103B5000440200200C49086808B1401E08600B4967
:103B6000086808B1401E08600949086808B1401E8D
:103B700008600849086808B1401E086006480168E6
:103B8000491C01607047000004000020D80100209B
:103B9000DC0100200C020020440200200A4810B57D
:103BA000016841F400710160016841F480610160C5
:103BB000016841F4807101604FF47A5001F06AFBB2
:103BC00000F004F8002010BD003C0240704770B5C2
:103BD00015460E46040003D094F8210010B104E00D
:103BE000012070BD204600F020F8211D2068FEF75E
:103BF00005F8D4E900023146FDF7EEFFD4E90002F2
:103C00002946FDF7D7FF60681028206808D0016AB0
:103C100041F004010162012084F82100002070BD00
:103C2000016841F004010160F5E7FFF733BE00F0E1
:103C30001F02012191404009800000F1E020C0F8FE
:103C40008012704700F01F0201219140400980005E
:103C500000F1E020C0F88011704700F01F02012140
:103C600091404009800000F1E020C0F80011704749
:103C7000F0B40E4B1B680C46C3F30223C3F10705D7
:103C8000042D00D90425191D072901D2002300E0C5
:103C9000DB1E012606FA05F1491E214099409E408F
:103CA000761E16403143F0BC02F028BC0CED00E05B
:103CB000064900F0070208684FF6FF03184040EA83
:103CC0000220034A10430860704700000CED00E03A
:103CD0000000FA05D0F8AC0304F016B8C1EBC1023D
:103CE00000EB8202D0F8AC03D26B03F088BFC1EBCB
:103CF000C10200EB8202D0F8AC03D2F8E02103F05D
:103D0000CEBFD0F8AC0304F001B810B504460A46A3
:103D10000B0601F07F00C0EBC00104EB810101D56F
:103D2000303101E001F5EA710870D009487094F86B
:103D30007803012809D0012084F87803206804F072
:103D4000C3FF002084F8780310BD022010BD70B5B9
:103D50000A460446090602F07F0005D5C0EBC00103
:103D600004EB8101303105E0C2EBC20104EB8101BB
:103D700001F5EA7100258D700870D009487094F83B
:103D80007803012809D0012084F87803206805F021
:103D900052F984F87853002070BD022070BD01F004
:103DA0007F01C1EBC10100EB8100B0F8EC0180B2F2
:103DB000704770B504460D460E0601F07F00C0EB5B
:103DC000C00104EB810101D5303101E001F5EA7158
:103DD000ED0908704D708A60CB7000D0C880002556
:103DE000022B00D10D7194F87803012809D001202D
:103DF00084F87803206804F0CFF9284684F87853D3
:103E000070BD022070BD000070B504460E4601F082
:103E10007F00C0EBC00104EB81010025C1F8E02167
:103E2000C1E97A3581F8D55181F8D401206901F5CD
:103E3000EA71012800D10A6194F8780301280DD0B5
:103E4000012084F878037006227C206808D005F0F1
:103E500053F900BF84F87853002070BD022070BD74
:103E600005F02AF8F6E770B50D460446090605F098
:103E70007F0005D5C0EBC00104EB8101303105E0C6
:103E8000C5EBC50104EB810101F5EA7101228A70DD
:103E90000870E809487094F87803012807D084F87E
:103EA0007823206805F0F9F8680602D007E00220C0
:103EB00070BD217C04F55F72206805F09DF800203C
:103EC00084F8780370BD70B504460E4601F07F009B
:103ED000C0EBC00104EB81010025CA63C1E91135C3
:103EE000012381F8313001F8300F2069012800D119
:103EF0000A6194F8780301280BD084F878337006AF
:103F0000227C206807D005F0F7F884F87853002069
:103F100070BD022070BD04F0CFFFF6E72DE9FC5F15
:103F2000044600680026054605F03AFA002876D1D6
:103F3000206805F05EFA002871D0206805F059FA73
:103F4000800704D52068416941F002014161206881
:103F500005F04FFA010304F55F704FF0010A4FF0CE
:103F6000080B00904ED5206805F025FA074647E07B
:103F7000F80743D0F1B2206805F033FA8046C00755
:103F80002AD005EB4610C0F808ABC6EBC60104EB1F
:103F9000810101F5EA79216901290DD1D9F80810CB
:103FA000D0F8100BC0F31200091AC9F81810D9E99B
:103FB00002010144C9F80C10F1B22046FFF797FE48
:103FC0002069012808D13EB9D9F8140020B9206829
:103FD0000121009A05F010F85FEA087006D5204626
:103FE00000F08CFA05EB4611C1F808BB5FEAC86027
:103FF00004D505EB46111020C1F8080B7F08761C8C
:10400000002FB5D1206805F0F4F940034FF04009C6
:1040100062D5206805F0C8F9074600265AE07EE11F
:10402000F80755D0F1B2206805F0CCF98046C007FA
:1040300029D0D5F834180AFA06F08143C5F83418A7
:1040400005EB4610C0F808A9C6EBC60004EB8000DB
:10405000303001902069012805D10198C16880683D
:1040600001440198C160F1B22046FFF737FE206994
:10407000012808D13EB90198406920B92068012182
:10408000009A04F0B9FF5FEA087003D505EB46110A
:10409000C1F808B95FEAC86004D505EB46111020E5
:1040A000C1F808095FEA486003D505EB4611C1F87D
:1040B00008995FEA887004D505EB46110220C1F823
:1040C00008095FEA086003D53146204602F042FA4B
:1040D0007F08761C002FA3D1206805F08AF90028FC
:1040E0000DDAD5F8040820F00100C5F804082046D0
:1040F00000F0C4F92068416941F000414161206845
:1041000005F077F900050BD5D5F80808C00702D0EF
:10411000204600F00FFA2068416941F400614161D6
:10412000206805F066F9C0044BD5D5F8040820F0E6
:104130000100C5F804080021206805F001F90020FD
:10414000FF2106E005EB4012C2F80819C2F8081B6F
:10415000401C62688242F5D84FF0FF30C5F818085D
:10416000D5F81C0840F00110C5F81C08A06A60B121
:10417000D5F8840840F00B00C5F88408D5F8440849
:1041800040F00B00C5F844080BE0D5F8140840F0E7
:104190000B00C5F81408D5F8100840F00B00C5F85E
:1041A0001008D5F8000820F4FE60C5F80008217C4E
:1041B0002068009A04F020FF2068416941F4805192
:1041C0004161206805F015F980041CD5206804F0D1
:1041D00023F82068C16821F47051C160206805F09F
:1041E000C1F858B30320C4F81490E0602068C16897
:1041F00041F4A051C160204600F030F920684169C7
:1042000041F400514161206805F0F3F8C00640D543
:104210002068816921F010018161D5F8208008F0C3
:104220000F00C0EBC00004EB8007C8F3434007F564
:10423000EA7702280CD006281CD025E00020E06098
:104240004FF4007060612068C16841F41051D1E7FB
:1042500047F6F07118EA010F16D0C8F30A1290461B
:104260002846F96805F0C9F8F8684044F860B8696C
:10427000404408E008222846009905F0BEF8B969D4
:10428000C8F30A100844B8612068816941F0100140
:104290008161206805F0ADF8000707D5204600F0E1
:1042A000F1F82068416941F008014161206805F09A
:1042B000A0F8C00208D5F1B2204600F032F820681C
:1042C000416941F480114161206805F092F8800253
:1042D00008D5F1B2204600F028F82068416941F481
:1042E00000114161206805F084F8400007D52046A0
:1042F000FFF7F0FC2068416941F08041416120688E
:1043000005F077F840070AD520684568680702D5A8
:104310002046FFF7F6FC2068416829434160BDE86C
:10432000FC9FD0F8AC0303F043BDD0F8AC0303F01E
:1043300041BD0000F0B589B004004FF0000756D031
:10434000022084F87903204600F054F8206804F035
:10435000ADFD04F1100120220E466846FBF730FF48
:1043600094E80F0004F05EFC0021206805F055F889
:1043700001210025C7EBC70004EB800080F8311055
:1043800000F8307FC780C5708560C5607F1C4561BF
:104390000F2FEFD300204FF4827200BFC0EBC0019B
:1043A00004EB810102EB800381F8D55181F8D4013F
:1043B000C88681F8D751C1F8DC51C1F8E051C1F885
:1043C000E8512168CD50401C0F28E7D32022314608
:1043D0006846FBF7F5FE94E80F0004F0C5FC84F88E
:1043E0007953206804F0B3FC002009B0F0BD01202F
:1043F000FBE7000070B50068144986B0884222D1FE
:104400004FF440400224002503268DE871000C2063
:10441000049069460E48FFF77BFA0E48016841F0A8
:1044200000510160F0028DE871000A200490694695
:104430000948FFF76DFA002211464D20FFF718FCDE
:104440004D20FFF70AFC06B070BD000000000440DC
:1044500000040240303802400000024010B504461B
:10446000C068012100B90021D4F8AC0303F0E6FCD8
:10447000D4F8AC03BDE8104003F0AFBCD0F8AC03F7
:1044800003F0CABCD0F8AC0303F0CCBC10B50446B2
:1044900090F87803012809D0012084F87803206877
:1044A00004F0D1FF002084F8780310BD022010BD75
:1044B0000068416200207047F0B500680023446A3C
:1044C00031B1856A4FF4827604EB15444D1E0AE043
:1044D00044EA024181620FE006EB8307C7595B1C87
:1044E00004EB1744DBB2AB42F6DB4FF4807303EB13
:1044F000810144EA024242500020F0BDD0F8AC23D2
:1045000000F55F71104603F0A3BC10B5044690F8A7
:10451000780301280CD0012084F87803206804F087
:104520000AFC206804F0F6FE002084F8780310BD31
:10453000022010BDD0F8AC0303F0C5BC2DE9F04754
:10454000DFF8B89105460E46D9F800006C4C00F033
:1045500007016B48083406F0FF0841F28837B14282
:104560004DD289F80080D9F8001001F00701B1425E
:1045700078D12978890705D52168AA6821F0F0014A
:10458000114321602978C90725D06968012913D012
:104590000068022913D08007002863DA206820F021
:1045A000030008432060FFF7CFFAC61968680128A6
:1045B0000CD0022814D01DE000688003ECE78001D5
:1045C000EAE700BFFFF7C0FAB0425BD22068C0F351
:1045D00081000128F6D166E0FFF7B6FAB04251D269
:1045E0002068C0F381000228F6D15CE0FFF7ACFA46
:1045F000B04247D2206810F00C0FF7D153E0297871
:10460000890705D52168AA6821F0F00111432160CE
:104610002978C9073DD06968012913D000680229AB
:1046200013D0800700283CDA206820F003000843FC
:104630002060FFF789FA0744686801280CD0022837
:1046400016D022E000688003ECE78001EAE700BFB3
:10465000FFF77AFAB84215D22068C0F3810001282A
:10466000F6D116E01DE000BFFFF76EFAB84209D29E
:104670002068C0F381000228F6D10AE0FFF764FA4F
:10468000B84202D30320BDE8F087206810F00C0F79
:10469000F4D189F80080D9F8000000F00700B0429A
:1046A00001D00120EFE72878400705D52068E968A8
:1046B00020F4E050084320602878000706D52068E1
:1046C000296920F4604040EAC100206000F022F82F
:1046D0004FF47A71B0FBF1F0401EB0F1807F0AD246
:1046E0004FF0E0214861074AF02082F8140D0020C5
:1046F0008861072008610020C5E70000003C0240F7
:10470000003802400FE000E001490120C864704712
:104710000000474200B500F043F808490968F0225C
:1047200092FAA2F201F0F001B2FA82F2D140044A08
:10473000515CC8400349086000BD000008380240D1
:1047400030A600083002002000B5FFF7E3FF07495C
:1047500009684FF4E05292FAA2F201F4E051B2FA81
:1047600082F2D140024A515CC84000BD0838024084
:1047700030A6000800B5FFF7CDFF074909684FF4E0
:10478000604292FAA2F201F46041B2FA82F2D140A0
:10479000024A515CC84000BD0838024030A60008FB
:1047A00030B51D48006810F00C011C481AD04410A8
:1047B000042916D0082915D11749091F0A6802F0E3
:1047C0003F030A6802F480054FF4800292FAA2F2D5
:1047D000B2FA82F2D54047F6C07204D0B4FBF3F0CF
:1047E00003E0204630BDB0FBF3F00B6809681340CE
:1047F00092FAA2F2B2FA82F2D34058434FF4403216
:1048000092FAA2F201F44031B2FA82F2D140491C8C
:104810004900B0FBF1F030BD083802400024F4003C
:104820002DE9F84F04460078DFF8FC92BF4DC00731
:104830004FF0000649D0D9F800104846C1F3810175
:10484000012908D00068C0F3810002280AD1281D80
:104850000068400206D52868800336D560680128C4
:1048600074D132E0DFF8C4A20AF1020A8AF80060CB
:10487000FFF76AF941F2883700EB070804E000BF50
:10488000FFF762F940457BD228688003F8D420798D
:104890008AF800006068012803D0FFF755F9074443
:1048A00010E0FFF751F9074404E000BFFFF74CF9AF
:1048B000B842E8D228688003F8D506E0FFF744F94B
:1048C000B842E0D228688003F8D42078984F800757
:1048D0004FF0010B43D5D9F80010484611F00C0FEA
:1048E00009D00068C0F3810002280BD18E48001F58
:1048F0000068400206D42868800730D5E0680128A7
:10490000AED12CE0E068D8B1C7F800B0FFF71CF9D1
:1049100000F1640804E000BFFFF716F94045B2D289
:1049200028688007F8D52868F82292FAA2F221694F
:10493000B2FA82F220F0F8009140084328600EE0BD
:104940003E60FFF701F900F1640805E0EAE000BF0E
:10495000FFF7FAF8404513D228688007F8D420788A
:10496000000727D5DFF8C0A1724861690AF16C0A17
:1049700089B1C0F800B0FFF7E7F800F1640805E07E
:104980007EE000BFFFF7E0F8404579D2DAF800009A
:104990008007F7D50EE00660FFF7D6F800F164084F
:1049A00004E000BFFFF7D0F8404569D2DAF8000014
:1049B0008007F7D42078400752D55B48383001682B
:1049C00041F080510160DFF870A1DAF8001041F485
:1049D0008071CAF80010FFF7B7F800F1640803E02F
:1049E000FFF7B2F840454BD2DAF80000C005F7D522
:1049F000DFF8348108F1680888F80060FFF7A4F850
:104A000041F2883A5044009005E000BFFFF79CF85F
:104A1000009988427ED2D8F800008007F6D4207A28
:104A200088F80000A068012803D0FFF78DF88244C1
:104A300012E0FFF789F8824404E000BFFFF784F832
:104A4000504567D2D8F800008007F7D508E000BFCE
:104A5000FFF77AF850455DD2D8F800008007F7D408
:104A6000A069E8B3D9F80010C1F38101022959D037
:104A700002283E6605D0FFF767F800F164044CE0B9
:104A800048E0FFF761F800F1640603E0FFF75CF827
:104A9000B0423FD228688001F8D4D4E90710084317
:104AA00047F6C07292FAA2F2616AB2FA82F29140BB
:104AB000A26A4FF0FF3303EB52024FF4403393FAF4
:104AC000A3F3B3FA83F39A40114308434FF07062A3
:104AD00092FAA2F2E16AB2FA82F29140084300E04F
:104AE0001EE040F000511048001F0160C7F860B0A0
:104AF000FFF72AF800F1640404E000BFFFF724F890
:104B0000A04207D228688001F8D509E0FFF71CF819
:104B1000A04202D30320BDE8F88F28688001F5D4B5
:104B20000020F8E70120F6E708380240003802408C
:104B300000004742800E47420070004010B504005C
:104B400002D0607910B104E0012010BD204600F0D1
:104B500009F82068016841F00401016001206071DA
:104B6000002010BD00680449884204D10348016850
:104B700041F040010160704700080650343802409F
:104B8000704790F85100704710B501688A684B680B
:104B900012F0010F8C68C3F38013C4F3801401D0AA
:104BA00003B15CB18A68C2F340034A68C2F3C01221
:104BB00033B12AB1C16CBDE810400847816CFAE7F7
:104BC0004A68D243920642D48A68D243D20609D4B4
:104BD00090F8522042F0020280F852208A6822F0B7
:104BE00010028A6001688A68D24392060AD490F85B
:104BF000522042F0010280F852208A680A6822F0AE
:104C000040020A6001688A68D24352060BD490F8C9
:104C10005120122A07D090F8522042F0040280F866
:104C20005220CA688A688A68D243D20506D490F8AE
:104C3000522042F0080280F85220896890F8521001
:104C4000002904D0012180F85110FFF799FF10BD11
:104C500010B5040003D094F8510010B104E0012015
:104C600010BD204600F036F8022084F8510020687C
:104C7000016821F040010160D4E901010843D4E951
:104C800003121143084361690843218B01F4007149
:104C90000843E1690843216A0843A16A084321687F
:104CA0000860A069042101EA1040616A0843216894
:104CB00048602168E06A08612068C16921F40061E8
:104CC000C161002084F85200012084F851000020C6
:104CD00010BD00002DE9F04F044600684C49002546
:104CE0000227032685B04FF040094FF4806B8842BD
:104CF0004DD14848016841F480510160C8464FF0E9
:104D0000010A4FF00509CDF808A0CDE90369CDE906
:104D1000008769464048FEF7FBFD8020CDE900058D
:104D200069463D48FEF7F4FD08208DE88104CDE991
:104D3000036969463948FEF7EBFD3A4E38484FF0B3
:104D4000C0693060C6E90195C6E9035B7561B5616C
:104D5000F56135625F4630467562FEF7C5FC6664F4
:104D6000B46350362E48C6F80880C6E9035775610B
:104D7000B561F561356248307562C6E900093046B3
:104D8000FEF7B2FC2664B46305B0BDE8F08F264997
:104D90008842F9D11F48001F016841F400410160B9
:104DA0004FF4E050CDE9000702950620CDE90360FD
:104DB00069461E48FEF7ACFD1A4F1D48A037D8467D
:104DC000C7E90005BD60C7E9035B7D61BD61FD61A9
:104DD0003D62C7E90956FD6238463D63FEF784FC33
:104DE00067641348BC635037A83087E82102C7E9DD
:104DF00003587D61BD61FD613D62C7E90956FD62F1
:104E000038463D63FEF770FC2764BC63BCE70000D6
:104E100000300140443802400000024000040240DB
:104E20001064024004110020003C004000080240D1
:104E3000106002402DE9F84F044690F851009A4660
:104E400001287DD1F1B3EAB394F85000012877D05E
:104E5000012684F85060222084F85100002584F84F
:104E60005250A163A287E287A564E564A586E58622
:104E7000A0684FF40049484504D12068036823F432
:104E800080430360A06A4FF40057B84209D12068FC
:104E9000036823F4005303602068036843F400535D
:104EA000036060684FF48278404501D1A06878B112
:104EB00020680168490603D4016841F0400101609F
:104EC000E06800E001E0E8B131E00120BDE8F88FE2
:104ED00084F8505013460A462046CDF800A000F052
:104EE00094F8F3E7534600220121204601F05CFDCF
:104EF00038BB2068C168A06B421CA2630170E08FC0
:104F0000401EE087E08F0128ECD813E053460022D2
:104F10000121204601F048FD98B92068C068A16BC6
:104F20000880A06B801CA063E08F401EE087E08FAC
:104F30000128EBD8A06AB84207D12068016801E0D7
:104F400061E009E041F480510160534600220121F3
:104F5000204601F029FD08B10320B7E7E0680028EA
:104F6000206818D0C068A16B0880A06B801CA0636B
:104F7000E08F401EE087A06AB84216D15346002257
:104F80000121204601F010FD58B114F8520F40F0F5
:104F900002002070E0E7C168A06B421CA2630170B0
:104FA000E6E72068C068ADF80000606840450AD1B7
:104FB000A068484502D0B0F5806F04D12068016830
:104FC00021F04001016084F8516020688168A26A84
:104FD000C1F30011BA4212D189B114F8521F41F045
:104FE000020104F81F19016821F40051016054F80E
:104FF000330C016841F400510160657765E784F87E
:105000005050002062E7022060E72DE9F843044693
:1050100090F85100DDF82080012801D022287ED1AF
:1050200069B162B15BB194F85000012877D00126D4
:1050300084F8506094F85100012803D005E0012065
:10504000BDE8F883322084F85100002584F85250DE
:10505000A263A387E3872163A386E386A564E5644F
:10506000A06A4FF40057B84209D12068016821F4C2
:10507000005101602068016841F40051016020681E
:105080000168490603D4016841F040010160E0680D
:10509000B0F5006F206B0BD0411C216321680078B4
:1050A000C860E08E401E0004000CE08659D06CE021
:1050B00021680088C860206B801C2063E08E401E41
:1050C0000004000CE08610D1A06AB84204D1206828
:1050D000016841F4805101604346002201212046CD
:1050E00001F062FC002864D133E043460022022133
:1050F000204601F059FC00287ED1206B21680088F1
:10510000C860206B801C2063E08E401E0004000CF1
:10511000E08609D1A06AB84206D1206800E0B6E076
:10512000016841F48051016043460022012120467C
:1051300001F03AFCE8BB2068C068A16B0880A06B56
:10514000801CA063E08F401EE087E08E0028CCD159
:10515000C2E72068C068A16B0880A06B801CA063B8
:1051600052E0A06AB84204D12068016841F480513D
:105170000160434600220121204601F015FCC0B920
:105180002068C068A16B08703EE0434600220221FF
:10519000204601F009FC60B9206B411C21632168A5
:1051A0000078C860E08E401E0004000CE08609D143
:1051B00000E021E0A06AB84204D12068016841F40F
:1051C00080510160434600220121204601F0ECFBA2
:1051D00090B92068C268A06B411CA1630270E08F87
:1051E000401EE087E08E0028CFD1434600220121F7
:1051F000204601F0D9FB08B1032021E72068C168EF
:10520000A06B421CA2630170E08F401EE087A06A81
:10521000B8420FD1434600220121204601F0C4FBD1
:1052200020B114F8520F40F002000EE02068C06870
:10523000ADF80000434601228021204601F0B4FB76
:1052400028B114F8520F40F020002070D4E784F801
:10525000516020688168A26AC1F30011BA4212D17C
:1052600089B114F8521F41F0020104F81F190168B6
:1052700021F40051016054F8330C016841F40051ED
:1052800001606577DBE684F850500020D8E6022004
:10529000D6E6704710B5401EB0F1807F01D30120E3
:1052A00010BD4FF0E02460610F21601701F026F976
:1052B0000020A06107202061002010BD10B5FFF77D
:1052C000E8FF10BD7047704730B590F83820012ACC
:1052D00020D0012280F83820022380F8393003687A
:1052E0005C6824F070045C6003685C680D682C43A3
:1052F0005C6003689C6824F080049C6003689C6880
:1053000049680C439C6080F83920002180F83810EF
:10531000084630BD022030BD10B5040003D094F81B
:10532000390010B104E0012010BD204600F00CF857
:10533000022084F83900211D206801F00DFE0120B3
:1053400084F83900002010BD10B5154B02681549CE
:105350009A4203D10A6842F010020A600068124AB9
:1053600090420AD1086840F002000860002211460D
:105370001D20FEF77DFC1D200CE00C4A90420DD153
:10538000086840F020000860002211463720FEF730
:105390006FFC3720BDE81040FEF75FBC10BD000079
:1053A000001000404038024000040040001400405B
:1053B000022180F8391001680A6842F001020A608F
:1053C000012180F83910002070470168CA6842F056
:1053D0000102CA600068016841F00101016000201B
:1053E0007047704770B50446006801694FF00005CA
:1053F000C943890717D4C168C943890713D4016910
:1054000021F0020101610120207620688069800777
:10541000204602D0FFF7E5FF04E000F0A0F82046A8
:1054200000F09EF8257620680169C943490718D421
:10543000C168C943490714D4016921F0040101611D
:10544000022020762068806910F4407F204602D038
:10545000FFF7C7FF04E000F082F8204600F080F874
:10546000257620680169C943090717D4C168C94373
:10547000090713D4016921F0080101610420207695
:10548000206880698007204602D0FFF7AAFF04E069
:1054900000F065F8204600F063F825762068016981
:1054A000C943C90618D4C168C943C90614D40169DF
:1054B00021F010010161082020762068806910F435
:1054C000407F204602D0FFF78CFF04E000F047F851
:1054D000204600F045F8257620680169C943C907D0
:1054E0000AD1C168C943C90706D1016921F0010188
:1054F0000161204600F035F820680169C9430906BA
:105500000AD4C168C943090606D4016921F08001A3
:1055100001612046FFF7D6FE20680169C9434906AC
:105520000AD4C168C943490606D4016921F0400183
:105530000161204600F017F820680169C943890617
:105540000CD4C168C943890608D4016921F020013F
:1055500001612046BDE87040FFF7B5BE70BD7047E1
:10556000704700F0E7BF7047704710B50446006809
:10557000016811F0010FC16801F480710AD049B1CE
:10558000016821F00101016094F83A0040F0010047
:1055900084F83A00206801684269C1F3400102F0D2
:1055A000010251B14AB1016821F00201016094F891
:1055B0003A0040F0040084F83A002068016842692B
:1055C000C1F3800102F0010251B14AB1016821F03A
:1055D0000401016094F83A0040F0020084F83A00B7
:1055E000206801684269C1F3C00102F0010251B1B3
:1055F0004AB1016821F00801016094F83A0040F0D6
:10560000080084F83A0021680868C968C0F34010AF
:1056100001F0200140B139B1204601F0AEFE206812
:10562000016821F02001016021680868C968C0F3A1
:10563000801001F0400140B139B1204601F0BEFFB9
:105640002068016821F04001016094F83A000028C8
:1056500005D0012084F839002046FFF785FF10BDF2
:1056600010B5040003D094F8390010B104E0012013
:1056700010BD204600F022F8022084F8390020688E
:10568000C16821F40051C160204601F0DBFE2068B2
:10569000016921F4904101612068416921F02A01EA
:1056A00041612068C16841F40051C160002084F864
:1056B0003A00012084F83900002010BD2DE9F041A6
:1056C000064600682C4986B0884252D12B480168B2
:1056D00041F40021016003201221CDE900010121E4
:1056E000CDE902100820049069462548FEF710F91C
:1056F000254D2448002447052860C5E901744FF46E
:105700008068C5E903486C61AC61EC612C62284695
:105710006C62FDF7E9FF75631A48AE6350353030AF
:10572000E5E802074020A5E81101174845F81449AB
:105730005030AC61EC612C626C62FDF7D5FF3563D3
:10574000002211463420AE63FEF792FA3420FEF7B1
:1057500084FA012205210F20FEF78AFA0F20FEF7B6
:105760007CFA002205210D20FEF782FA0D20FEF7BB
:1057700074FA06B0BDE8F081004C004040380240A9
:105780000000024040600240E412002070B5044670
:1057900090F83900012801D0122835D179B372B3BD
:1057A00094F8380001282FD0012084F83800A16235
:1057B000A285002584F83A5094F83900122821D0A7
:1057C0005FF0220084F83900636B1048D863636B84
:1057D0000F481864636B0F48986408461346666B5D
:1057E000216802463046091DFDF7B6FF2068416971
:1057F00041F04001416184F83850002070BDFFE75E
:105800000120FBE73220DDE70220F7E747730008BD
:10581000717300082573000801490248FCF74CBA6F
:1058200026020020F0380120704700002DE9F047E3
:10583000044690F8390099460D46012801D02228E7
:1058400058D12DB322B394F83800012852D0012644
:1058500084F83860002784F83A7094F839002228D8
:1058600019D0122084F83900A284E2844FF48058C1
:10587000E08C4B46401EE084A0684FF0000240459B
:105880004FF08001204613D101F0E9FE08BB04E08F
:105890000120BDE8F0873220E4E728882168C0F3C2
:1058A00008004860206908B16D1C08E0AD1C06E0E6
:1058B00001F0D5FE68B9216815F8010B4860E08C4D
:1058C0000028D5D14B4600224021204601F0C7FEDA
:1058D00008B10320DDE794F83900322806D084F8B7
:1058E000396000BF84F838700020D2E7222084F8A5
:1058F0003900F7E70220CCE7704700002DE9F041BE
:10590000082A02D90420BDE8F0810024031D2646A0
:105910005FF0030583F80864641C83F80C54E4B258
:1059200003F58263082CF5D3002423464FF0010CC5
:105930001BE00D784F78072D01D9012424E01FB119
:10594000022F01D002241FE005EB851500EB0515A1
:1059500095F80CE42D1DBEF1010F14D05B1C85F8E9
:1059600008C485F80C74DBB2891C9342E1D300F5BE
:105970000053011D83F884615FF0000291F8085420
:10598000012D05D009E00524FBF74CFF2046BAE7BE
:1059900093F884516D1C83F88451521CD2B201F5E6
:1059A0008261082AEAD3FBF7B5FFEFE738B50C4C64
:1059B0002078002813D000F019FE00F0E9FC6846BA
:1059C00000F0ECFB07A16846FAF738FC30B1074855
:1059D00000F0FEFB202801D000202070207838BD88
:1059E000880100204F4E464900000000047F00203F
:1059F0000D4810B50088FAF7BEFE6FF00D04224680
:105A0000FAF794FEFAF704FF084908600648801C7C
:105A10000088FAF7B0FE2246FAF788FEFAF7F8FE99
:105A20000349086010BD000000000E08A00100201E
:105A3000A40100202DE9F0470446D0F880019946E2
:105A400092460D46202842DA50B32168A94201D976
:105A5000002011E000EB400104EB810151F80C1C27
:105A6000A94209D32946204600F033F800EB400153
:105A700054F82110A9422AD0D4F8801101EB410238
:105A800004EB8202A2F10C0308E01F46164697E8D9
:105A9000801186E880110C3A0C3B491E8142F4DCEF
:105AA00000EB400004EB8000C0E9005A99F80010B8
:105AB000017299F80110417299F80210817299F8F7
:105AC0000310C172D4F88001401CC4F88001BDE805
:105AD000F08730B50446D0F8800123680022401ECC
