:020000040800F2
:1000000040F801209D010008A5010008A701000893
:10001000A9010008AB010008AD01000800000000C4
:10002000000000000000000000000000AF01000818
:10003000B101000800000000B3010008656300087A
:10004000B7010008B7010008B7010008B7010008B0
:10005000B7010008B7010008B7010008B7010008A0
:10006000B7010008B7010008B7010008E91200084D
:10007000B7010008B7010008B7010008B701000880
:1000800001130008B7010008B7010008110D0008AE
:10009000F90C0008050D0008B7010008B7010008B9
:1000A000B7010008B7010008B7010008B701000850
:1000B000B701000805640008B7010008B70100088F
:1000C000B7010008B7010008B70100081D62000869
:1000D000B7010008B7010008B7010008B701000820
:1000E000B7010008B7010008B7010008B701000810
:1000F000B7010008B7010008B7010008B701000800
:10010000B7010008B7010008B70100083562000810
:10011000B7010008B7010008B70100080166000830
:10012000B70100080D130008191300083113000867
:10013000B70100080000000000000000B70100083F
:10014000B7010008B7010008B7010008B7010008AF
:10015000B7010008B7010008B7010008B70100089F
:10016000B7010008B7010008B7010008B70100088F
:10017000B7010008C15D000800000000B7010008D9
:10018000B7010008B7010008DFF80CD000F056FCFA
:10019000004800478596000840F80120064880473F
:1001A00006480047FEE7FEE7FEE7FEE7FEE7FEE75C
:1001B000FEE7FEE7FEE7FEE7BD63000889010008F1
:1001C00040EA01039B0703D009E008C9121F08C0D9
:1001D000042AFAD203E011F8013B00F8013B521E59
:1001E000F9D27047D2B201E000F8012B491EFBD2D0
:1001F00070470022F6E710B513460A460446194632
:10020000FFF7F0FF204610BD10B5044604E00B7860
:1002100000F8013B03B1491C521EF8D2204610BD24
:1002200010B5002200E0521C835C8C5CA34201D11B
:10023000002BF8D1D8B2E1B2401A10BDF0B480EA78
:100240000102D40F4200B2EB410F02D2024608462F
:1002500011464A0042D0C30DDDB2C1F3C752AD1AF8
:10026000202D35DAC1F3160141F4000204B15242E7
:10027000C5F1200602FA06F12A411044B3EBD05F23
:1002800023D0C4B1012DA0EBC35009DCF0BC4FF06A
:10029000004202EAC352DBB200F5000000F0F2BAFD
:1002A000400000F1807000EBC350A0F1807040EA84
:1002B000D170490009E0490841EAC071A0EBC35080
:1002C00000F50000400800EBC350F0BC00F0D1BACC
:1002D0006142012202EB4101001BF6E7F0BC7047CE
:1002E00081F00041AAE780F00040A7E780EA010220
:1002F00010B502F00043400022D04A001FD0010E8A
:1003000001EB1261C0F35600C2F3560240F4000044
:1003100042F40002A0FB022000047F39140400D044
:10032000401C50EA124001D44000491EC2B20C06E3
:1003300004EBD010401C4008802A02D003E00020CB
:1003400010BD20F00100002900DA0020184310BD84
:1003500030B480EA010202F0004530F0004221F0A2
:10036000004013D090B1C30DD40DC2F31601C0F3F9
:100370001600E41A41F4000140F400027D34914279
:1003800001D3641C00E04900002C02DA30BC0020DC
:1003900070474FF400000023914201D3891A0343B0
:1003A00040084FEA4101F7D151B1914202D14FF0DB
:1003B000004105E002D24FF0010101E06FF00101C0
:1003C00003EBC450284430BC00F053BA420005D0BF
:1003D000C0F3C7525242914201DC0020704700EB4B
:1003E000C15070472DE9FE4F804681EA0300C00FDF
:1003F0000C46009021F0004123F00045B8EB0200CC
:10040000A94105D24046214690461C460B4602466D
:1004100023F00040104347D0270DC7F30A00C3F371
:100420000A510290401A019040286BDAC3F313007E
:1004300040F4801B0098924620B10023D2EB030ABF
:1004400063EB0B0B01985946C0F14002504600F097
:10045000DFF906460D4650465946019A00F0F7F975
:1004600010EB08006141002487EA115284EAE77327
:100470001A4340D0009A62B3019A012A4FEA075208
:1004800015DC001B61EB02014FF0004202EA07524B
:10049000CDE90042001C41F5801132462B4600F0A8
:1004A0002EFA03B0BDE8F08F40462146F9E7001B65
:1004B00061EB0201001C41F5801300185B4120181C
:1004C000A2F5001747EB030140EAD570B6196D415C
:1004D00011E06D084FEA360645EAC0754FEA07524B
:1004E000001B61EB0201001C41F5801149084FEA35
:1004F00030000019514132462B4603B0BDE8F04FA1
:1005000000F0EEB90098012240000023D0EB020277
:1005100063EBE073009821464FEAE074B8EB00000B
:1005200061EB0401E9E783F000435BE781F0004100
:1005300058E72DE9FE4F81EA030404F0004421F05E
:10054000004100944FF0000B23F0004350EA0104F7
:100550005ED052EA03045BD0C3F30A54C1F30A55D8
:100560002C44A4F2F3340194A0FB0254C1F3130110
:1005700041F48011C3F3130343F4801301FB0244DD
:1005800000FB034E840A970A44EA815447EA8357E2
:10059000A4FB076802958D0A05FB07854FEA932C9B
:1005A00004FB0C542705029D4FEA065847EA16370C
:1005B000B5EB08056EEB070C870E920E47EA811724
:1005C00042EA8312A7FB0201B6EB0B0164EB0004C5
:1005D0002B0D43EA0C335E1844EB1C50DA465146AF
:1005E000E7FB0201C5F313044FEA0B3343EA14534C
:1005F0004FEA0432019C43EA0603A4F10C0402947E
:10060000009CCDE900B400F07AF903B0BDE8F08FAA
:1006100000200146F9E72DE9F04D81EA030404F0DA
:10062000004B21F0004514464FF0000A23F0004132
:1006300050EA050220D054EA01021DD0C5F30A5742
:100640000246C5F31303C1F31300C1F30A5640F485
:10065000801543F48013A7EB0608101BD64608F25A
:10066000FD3873EB050002D308F1010801E0921890
:100670005B41B8F1000F03DA00200146BDE8F08DC0
:1006800000204FF48011064684460EE0171B73EBE2
:10069000050705D3121B63EB050306434CEA010C67
:1006A00049084FEA300092185B4150EA0107EDD14A
:1006B00052EA030012D082EA040083EA05010843EB
:1006C00005D0101BAB4106D20122002306E0002218
:1006D0004FF0004302E06FF0010253101AEB0600E6
:1006E0004CEB085110EB0A0041EB0B01BDE8F04D5B
:1006F00000F0F6B870B521F0004303430CD0C1F30D
:100700000A550024D5EB040564EB0403D617AD1A93
:10071000B34102DB0020014670BD201841EB0251BD
:1007200070BDC10F80EAE0700844CA07962300211B
:1007300000F0A8B896230022114600F0A3B80EB529
:1007400040F2334102910021CDE900110A460B46E7
:1007500000F0D5F803B000BD20F00040C10DC0F39B
:10076000160040F400007F2901DA00207047962926
:1007700003DCC1F19601C840704796398840704744
:10078000C1F30A5210B5C1F3130140F2FF3341F433
:1007900080119A4201DA002010BD40F233439A42A0
:1007A000A2F2334203DC524200F041F810BD904007
:1007B00010BD00F0004230F000400AD0C10D01F53C
:1007C0006071C0F3160042EA0151C20840071143AC
:1007D000704700200146704701F0004330B421F01B
:1007E000004150EA010206D00A0DA2F56072C1F381
:1007F0001301002A02DC30BC00207047440F44EA99
:10080000C104C100E01830BC00EBC25000F031B8A8
:10081000202A04DB203A00FA02F1002070479140C0
:10082000C2F1200320FA03F3194390407047202AB5
:1008300004DB203A21FA02F00021704721FA02F38A
:10084000D040C2F120029140084319467047202A47
:1008500006DBCB17203A41FA02F043EAE07306E0E8
:1008600041FA02F3D040C2F12002914008431946F8
:1008700070470029A8BF7047401C490008BF20F0FE
:100880000100704710B4B0FA80FC00FA0CF050EA96
:10089000010404BF10BC704749B1CCF1200421FA17
:1008A00004F411FA0CF118BF012121430843A3EB12
:1008B0000C01CB1D4FEA00614FEA102042BF00201F
:1008C00010BC704700EBC35010440029A4BF10BCFB
:1008D0007047401C490008BF20F0010010BC704761
:1008E00010B5141E73F1000408DA401C41F1000138
:1008F00092185B411A4301D120F0010010BD2DE98F
:10090000F04D92469B4611B1B1FA81F202E0B0FA85
:1009100080F220329046FFF77BFF04460F4640EA04
:100920000A0041EA0B0153465A46084313D01146C8
:1009300053EA010019D0C8F140025046FFF777FF93
:1009400005460E46504659464246FFF761FF0843AA
:1009500005D0012004E020463946BDE8F08D002096
:10096000054346EAE0762C4337430A986305E40AD8
:10097000A0EB08000022FD0A44EA47540A3002D5E1
:1009800000200146E9E7010510196941DDE9084544
:1009900000196941BDE8F04DA2E72DE9F04D0023B3
:1009A0001A461B1A8A4103DB00200146BDE8F08D80
:1009B000C1F30A52C1F3130141F480154FF0000B4B
:1009C000D10702D100186D41521E0027044640F2A3
:1009D000FF11384601EB620A3E468046024600207F
:1009E0004FF48011FFF723FFC2197141BB1846EB8A
:1009F0000100B4EB030C75EB000C04D3E41A65EBB7
:100A0000000517460E46241908F101006D41804685
:100A10003428E3DDF91946EB0600091BA84103D28F
:100A20004FF0FF32134601E0002213461BEB070094
:100A300046EB0A51BDE8F04DFFF752BF064C074D9B
:100A400006E0E06840F0010394E80700984710349E
:100A5000AC42F6D3FFF79CFB089E0008289E0008D6
:100A60000EB5C10F80EAE0700844CA07002140F2C9
:100A700033438DE80E000A460B46FFF740FF03B0F4
:100A800000BD70B5C1F30A5201F000450024C1F366
:100A9000130140F2FF3341F480119A4201DA002041
:100AA00070BD40F233439A42A2F2334203DC524219
:100AB000FFF7BDFE00E090402C43F1D0404270BDF6
:100AC00070B58C1810F8015B15F0070301D110F810
:100AD000013B2A1106D110F8012B03E010F8016B3D
:100AE00001F8016B5B1EF9D12B0705D40023521EC0
:100AF0000DD401F8013BFAE710F8013BCB1A921C28
:100B000003E013F8015B01F8015B521EF9D5A14225
:100B1000D8D3002070BD000010B5806B90F83D1058
:100B2000252906D05FF0150180F83D1001F020F86E
:100B300010BD3521F8E710B5806B042180F83D1019
:100B4000016C41F00201016401F014F810BD10B510
:100B5000806B01F00EF810BD434910B5D1F80423A5
:100B600022F44032C1F80423D1F8042343681A4325
:100B7000C1F8042301684A6822F480724A6001685F
:100B80004A68036942EA03224A6001684A6822F01F
:100B900040724A6001684A6883681A434A60016883
:100BA0008A6822F400628A6001688A68C3681A430E
:100BB0008A6001688A6822F070628A6001688A68C7
:100BC000036B1A438A6001688A6822F040528A6087
:100BD00001688A68C36A1A438A6001688A6822F0D9
:100BE00002028A6001688A68836942EA43028A6075
:100BF000416A002901684A680FD042F400624A60E5
:100C000001684A6822F460424A6001684A68174CE9
:100C1000836A04EB43331A4301E022F400624A6022
:100C20000168CA6A22F47002CA620168CA6A038C47
:100C30000F4C04EB03531A43CA6201688A6822F41A
:100C400000728A6001688A68C36942EA43228A6046
:100C500001688A6822F480628A6001688A68406953
:100C600042EA8020886010BD0020014000E0FFFFC4
:100C70000000F0FF2DE9F0410E4D0D4F0646AC6C23
:100C8000E86D57F82410FFF72BFB014647F8246066
:100C90003046FFF7D3FAE865601C41F27071884274
:100CA00001D2641C00E00024AC64BDE8F0810000C7
:100CB0008CD40020940100202DE9F0410D4D0C4F03
:100CC00006466C6CA86D57F82410FFF709FB014627
:100CD00047F824603046FFF7B1FAA865601CB0F50C
:100CE000966F01D2641C00E000246C64BDE8F081C2
:100CF000CCC1002094010020014801F055B800004B
:100D000098030020014801F04FB80000980300202C
:100D1000014801F049B800009803002010B54FF4D5
:100D2000D872036802EB01129B5813F00404436B62
:100D30009C600468436BA4585CD0E4085C60036862
:100D40009A58436B02F00202DA604FF4DA720368D9
:100D500002EB01129B58446B03F00F0323610368FD
:100D60009A58436BC2F307225A634FF4DC7203684C
:100D700002EB01129B58446BDBB2636103689B5822
:100D8000446BC3F30723A36103689B58446BC3F30D
:100D90000743E36103689A58436B120E1A624FF4DB
:100DA000DE72036802EB01129B58446BDBB2636294
:100DB00003689B58446BC3F30723A36203689B58E3
:100DC000446BC3F30743E36203689A58436B120E04
:100DD00000291A63016810D00A6942F020020A61F2
:100DE00001684A6922F010024A6190F838102229FD
:100DF0000CD024E0640D1C60A1E7CA6842F0200218
:100E0000CA6001684A6922F00202EDE701684A6996
:100E100022F480724A6101684A6922F400724A61D0
:100E200001684A6922F480624A6101684A6922F4D1
:100E300000624A6101684A6922F400424A6190F8FE
:100E40003810322906D0012180F8381001F09AF9C3
:100E5000002010BD1221F7E710B501684A6922F0A1
:100E600001024A6190F83810122918D101684A69C4
:100E700022F480724A6101684A6922F400724A6170
:100E800001684A6922F480624A6101684A6922F471
:100E900000624A6101684A6922F400424A6190F89E
:100EA0003810322906D0012180F8381001F046FAB6
:100EB000002010BD2221F7E7002070470020704776
:100EC00010B5074C054800220649206006F00CF8D2
:100ED0000549206806F002F8002010BD78040020C3
:100EE000280000209C0800209C06002010B507F078
:100EF0006BF90348006805F0D5FF002010BD000025
:100F00002800002010B5054C0A460146206805F06F
:100F1000EBFF2068BDE8104006F014B82800002060
:100F200010B500F0BDF800F07BF8BDE8104000F00F
:100F300037B9000001484068704700007800002081
:100F400070B508F089FA1A4800F0D9FB0122194E51
:100F500095032946304602F0A0FB04F073FC4FF4E1
:100F60007A7002F039FA1448144C90F8FC01032806
:100F700017D000222946304602F08FFB04F04CFCCB
:100F800004F034FC0E486061094800F0D6FB0D48BF
:100F90000021016001710C48C0F8A013C0F8A4132F
:100FA00070BD0A48606107F001F80120207070BD33
:100FB000A4160020000402407804002060000020F5
:100FC000210F000890270020B0560020F9110008DA
:100FD000024801210170002141607047800000201B
:100FE0000248012101700021416070477800002013
:100FF00001480078704700007800002010B5074CC9
:101000001021606800F0EEF9606810306060B0F5A3
:10101000007F02D300202070606010BD800000209F
:101020007FB5104C60688168684600F006FB0E4D85
:1010300001982969884208D000F0EAFA019800F086
:1010400067FB012802D0019828617FBD60680830E5
:1010500000F01EFB60688168684600F0EEFA0198B7
:10106000EAE70000A41600206000002010B50A4C3A
:10107000606800F0CDFA6068401C6060B0F5805F89
:1010800009D300202070054800F0C6F9BDE81040E3
:10109000024800F0D5B910BD78000020A416002049
:1010A0002DE9F05F384F40F21D2197F8A40300F0BE
:1010B00003004843A7F5804101EBC00602F0F2FAB5
:1010C00006F5805440F6FF7AD4F8E010DFF8BC80D3
:1010D0000546514514D2DFF8B890D9F8000008F061
:1010E00035F94FF48051C8F80C00884208D98B4676
:1010F0000A463146D9F8000008F06CF9C4F8E0B0AF
:10110000D8F8040080B9D4F8E010D1B120202070C4
:10111000280E2074280CE073280AA07365733046EB
:1011200000F098F8C8F80800D4F8E010D8F80400E7
:10113000814206D03044D8F8082000F079F8C8F889
:101140000800D4F8E0104046C8F80410514519D3FF
:10115000290E2175290CE174290AA174657481682E
:101160000A0E22760A0CE2750A0AA275617501213F
:1011700084F8E410D7F8A413491CC7F8A41300217D
:10118000C8F80410BDE8F09FB056002060000020B1
:10119000E001002001484069004700006000002095
:1011A00038B5134D40F21D2195F8A00300F003005F
:1011B0004843A5F5804101EBC00101F5805494F846
:1011C000E400002812D0E02000900A4823464FF4A3
:1011D0008052406800F083FB002084F8E400C4F8EB
:1011E000E000D5F8A003401CC5F8A00338BD0000FE
:1011F000B0560020A416002010B50C480B4C007807
:101200000834012809D1207838B94D2002F0C8FAF5
:10121000FFF72CFF4D2002F0CEFA2078012803D1F1
:10122000BDE81040FFF7EABE10BD000078000020C6
:1012300010B559B1064B491E08D310F8014B544064
:10124000E4B253F8244084EA1222F4E7104610BDB9
:1012500044980008014AFFF7EBBF00005F4C0AAA60
:1012600010B539B1044B491E04D310F8014B54405A
:101270001A5DF8E7104610BD880000200222FFF733
:10128000EFBF10B5846B204601F07EF8012020717D
:1012900010BD10B5846B204601F051F8012020717B
:1012A00010BD10B5846B206940F004002061204619
:1012B00001F06CF80120207110BD10B5846B20691D
:1012C00040F004002061204601F03BF8012020712D
:1012D00010BD10B5806B01F058F810BD10B5806BD3
:1012E00001F02EF810BD000010B50B2002F04DFAF1
:1012F000BDE81040014801F025B90000941100201C
:101300000148806801F01EB934120020014801F044
:1013100019B90000F037012010B53A2002F035FA73
:10132000BDE81040014801F00DB90000F4100020A4
:1013300010B53B2002F029FABDE81040014801F049
:1013400001B900004411002010B50468636083688F
:10135000402B036803D099600068C26010BD9A609A
:101360000068C16010BD000010B51B4900201B4C77
:1013700048648864C865024641F27073C1F8580039
:1013800044F82200521C9A42FAD3154B00224FF423
:10139000966400BF43F82200521CA242FAD3104BBD
:1013A0000022683B43F82200521C0D2AFAD30C4B52
:1013B0000022343B43F82200521C0D2AFAD3C860A5
:1013C000086148618861C861086248628862C862D1
:1013D00008634863886310BD940100208CD400200A
:1013E000CCC1002030B501242303984201D3022050
:1013F00030BD084A01440244994200D319460023F3
:10140000884205D2157805B11370401C521CF7E7CD
:10141000204630BDE07B002010B5040002D060689B
:1014200010B106E0022010BD012010BD616008F07F
:1014300055F8606801690029F8D108F04FF8F3E722
:101440002DE9F04F9BB004002ED0E02008F04EF9BB
:10145000179048B34FF0000BCDF808B0CDF80CB0A2
:10146000CDF810B0CDF814B0CDF81CB0CDF820B048
:10147000CDF824B0CDF828B05E461820C4F800B0EE
:1014800008F034F96060466160684FF0FF3AB14699
:1014900006616568CDE9136AC84600270BA902A852
:1014A000179A00F007F942E002201BB0BDE8F08F68
:1014B0000BA902A8179A00F0FDF8012F37D10C985C
:1014C0002968884208D10398A0F57061FF3903D0DC
:1014D0009DF82C00FF282AD103985F46401ECDF8C6
:1014E0001CB0CDF824B0CDF828B00890B0F5805FDE
:1014F00000D3089707A8179900F0AEF8DDE90810A7
:1015000000EBC110A8602868824501D98246A9462F
:10151000864201D20646A846182008F0E7F828615E
:1015200045612D692F612068401C002720600398C9
:1015300000F0EEF801281DD09DF82C00FF2819D0EE
:101540009DF83C00B0B12FB90C9828600398C001F9
:101550000127686010991498814203D2039814916E
:10156000C001129011991398814203D903981391E5
:10157000C00101900398401C0390642898D3206810
:1015800060B36D69286907F0A9FFA56060682861EC
:10159000D4E9010141612068012825D019D9616889
:1015A000A9B1A06898B1814211D00A6803689A4233
:1015B0000DD140684860A0684069A060006907F0EC
:1015C0008DFFD4E901010861D4E901014161C4E959
:1015D0000189179807F082FF012066E7606807F02D
:1015E0007DFFC4F804B0D6E7019912988842F0D97B
:1015F0006168486007A8019900F01FF807A81799CB
:1016000000F02AF8DDE9081000EBC110A860E0E75F
:1016100010B5B0F5805F01D3022010BD0446002054
:1016200003461A46214604F029F9012801D0012079
:1016300010BD204600F04BF9EEE7B1F5002F01D3C5
:1016400002207047CB09002201F07F01C0E900238E
:10165000C0E902120120704730B5044687B000206F
:101660000D46A0602A466946204600F023F89DF802
:101670000000FF28A06806D0401CA0608028F1D39D
:10168000401EA06001E00128FAD807B0012030BD5B
:101690000168C909C90180310160B1F5002F01D38A
:1016A000002101600120704701490160012070475D
:1016B000E07B00207CB50D46E021CDE900211446F9
:1016C0000FC800F0C1F8032817D020782870607880
:1016D000D4F8021040EA01206860607E2874607BC4
:1016E000D4F80E1040EA01206861607CD4F8121032
:1016F00040EA0120A86101207CBD02207CBD10B51C
:10170000044603F0D3FD2046FFF79AFE012010BDEA
:10171000B0F5805F08D2064AC10800F00700515CAE
:1017200001228240114201D0012070470020704701
:10173000E07B0020C009FFF7EBBF70B5040020D0AC
:101740002068002500284FF018001CD007F0CEFFBD
:101750006168086161684161606800696060056195
:10176000606841690968491C01606068416989686D
:1017700041606068001DFFF78BFF00234FF4805627
:1017800011E0022070BD07F0B1FF60600561606884
:10179000456161680120086060684560EDE7606848
:1017A000001DFFF775FF60684068FFF7C3FF012861
:1017B00004D118465B1C9BB2B042F0D3606841680C
:1017C00081606068C5602068401C2060012070BD99
:1017D00010B5002100F5005210F1040082F88411C8
:1017E00080F8083480F80C54012B04D192F884411D
:1017F000641C82F88441491CC9B200F58260082942
:10180000EED3012010BD7CB5DDE90645CDE90045EC
:1018100004F0C8F808B102207CBD01207CBD30B5C1
:101820000C4687B00146154602A8FFF706FF0DF1EA
:10183000080CCDE900459CE80F00FFF7E4FF012804
:1018400000D0022007B030BD7CB5DDE90645CDE90A
:10185000004504F055FA08B102207CBD01207CBD92
:1018600030B50C4687B00146154602A8FFF7E5FEE5
:101870000DF1080CCDE900459CE80F00FFF7E4FFEF
:10188000012800D0022007B030BD0000B0F5805F15
:1018900001D302207047084B03EBD002012300F074
:1018A000070083401078012903D09843107001206D
:1018B00070471843FAE70000E07B002001207047E2
:1018C0000020401CC0B20828FBD301207047B0F5AF
:1018D000805F01D3022070470121FFF7D7BF2DE9B8
:1018E000F04387B00F46044681681D4690460126A6
:1018F000DDF8389002A8FFF7A0FECDE900780DF1E1
:10190000080C9CE80F0000F04EF8012803D00220DC
:1019100007B0BDE8F08320681821000E2871206808
:10192000000CE8702088000AA87020786870606851
:10193000000E28726068000CE871A088000AA87187
:1019400020796871E068000E2873E068000CE87286
:10195000A089000AA872207B68722846FFF78EFCD7
:101960006876CDE9005902AF97E80F0000F027F83C
:10197000012800D00226E068401CE060A068401CFE
:10198000A060B0F5002F01D30020A06004F108038F
:10199000A068FFF7CFFE012801D03046B8E718460F
:1019A000FFF776FEF4E77CB5DDE90645CDE90045B5
:1019B00003F0A2FF08B102207CBD01207CBD7CB5F4
:1019C000DDE90645CDE9004504F042F908B1022001
:1019D0007CBD01207CBD10B5D1E9003443EA04236D
:1019E0000C89097B240444EA01610B43102A02D0CC
:1019F000C362002010BDC360FBE710B5D1E900341D
:101A000043EA04230C89097B240444EA01610B4363
:101A1000102A02D08362002010BD8360FBE710B55E
:101A2000D1E901231A43D1E9033423431A434B6913
:101A300042EA43228B69096842EA433242F00802D3
:101A4000102902D00262002010BD0260FBE70000F6
:101A500030B590F83C20012A19D0012280F83C20B2
:101A60000A6807230468092A13D9E5680A3A02EBD1
:101A7000420293409D43E5600A788B680A3A02EB84
:101A8000420293400268D4682343D36010E00220EE
:101A900030BD256902EB420293409D4325610A78DF
:101AA0008B6802EB4202934002681469234313617E
:101AB0004A681F23072A12D20468656B521E02EB84
:101AC000820293409D4365630A790B68521E02EBC4
:101AD000820293400268546B2343536325E00468F9
:101AE0000D2A11D2256BD21F02EB820293409D4337
:101AF00025630B790A68DB1F03EB83039A400368B5
:101B00001C6B22431A6310E0E56A0D3A02EB820275
:101B100093409D43E5620B790A680D3B03EB830319
:101B20009A400368DC6A2243DA62104A03689342EF
:101B300008D10B68122B05D1D2F8043343F480038B
:101B4000C2F80433036893420AD10968102901D00E
:101B5000112905D1D2F8041341F40001C2F804138D
:101B6000002180F83C10084630BD000000200140F4
:101B700070477047704710B5040003D094F83D00DB
:101B800010B104E0012010BD204600F00FF8022043
:101B900084F83D002046FEF7DFFF0020206401218D
:101BA00084F83D1084F83C0010BD0000F0B50646F6
:101BB0000068184985B0884229D11748016841F466
:101BC000806101604FF470700327CDE900070025A4
:101BD00069460295114801F049FC124C10482060FA
:101BE0004FF08060C4E901050014C4E903504000CF
:101BF00060618000A0614011C4E90705C4E909578C
:101C0000E5622046256301F079FBB463A66305B065
:101C1000F0BD0000002201404438024000140240A0
:101C200028640240F037012070B5044690F83C006B
:101C300000250E46012824D0012084F83C002068AD
:101C4000416841F0806141602068816841F48071A1
:101C50008160A16B17481346C863A16B16483246D2
:101C60000864A16B154888642168A06B4C3101F0B1
:101C70007DFB122084F83D0020688168C90702D0EE
:101C80000CE0022070BD816841F0010181604FF4D9
:101C9000077000BF6D1CADB28542FAD9E06A20B969
:101CA0002068816841F080418160002084F83C0018
:101CB00070BD0000190B00084F0B0008370B00081F
:101CC000F0B50A7D01209040344A136843F00103C7
:101CD0001360136823F47C53136013684C6A43EA5F
:101CE000042313602D4B1C331C6884431C602B4D54
:101CF0002B4CCE690C35A6B92E6886432E608F8991
:101D00004E6867F31F464F6904EBC707C7F8406684
:101D10000F890E6867F31F464F6904EBC707C7F8C2
:101D20004466CE69012E14D12E6806432E600E88BB
:101D30004D6866F31F454E6904EBC606C6F840566B
:101D40000E89CD6866F31F454E6904EBC604C4F8DE
:101D50004456124C8D69241D002D256806D005437C
:101D600025600E4C0D69143415B104E08543F7E786
:101D70002568854325600D69012D02D1256805433D
:101D80002560096A012902D11968014319601068A8
:101D900020F0010010600020F0BD0000006600404F
:101DA000006000407047000010B5044600684169BB
:101DB000C943C90714D182685F4991437AD0002191
:101DC00083685E4A9A4377D0002283685C489843D0
:101DD00074D000201143014302D02046FFF73CF8A5
:101DE0002168C868496910F0030FC1F3400104D0AD
:101DF00019B100212046FEF791FF20680169406972
:101E000011F0030FC0F3001004D018B101212046D7
:101E1000FEF784FF20688169426911F0010F436970
:101E2000C2F30022C3F3C03309D042B13BB1E16B2E
:101E300041F00101E163816921F0010181612068C4
:101E400081694269C1F340014369C2F34022C3F38F
:101E5000C03349B142B13BB1E16B41F00201E163F2
:101E6000816921F002018161206881694269C1F3C1
:101E700080014369C2F38022C3F3C03349B142B148
:101E80003BB1E16B41F00401E163816921F00401A0
:101E900081612068816911F0700F11D000234169C0
:101EA000C1F3C0224169C1F3C0315BB12AE001E056
:101EB00002E003E0012183E7012286E7012089E7B0
:101EC0000123ECE7F2B1E9B1816901F07001402929
:101ED00026D006DC102909D020290BD030290DD1BD
:101EE0001AE0502920D0602908D121E0E16B41F0AF
:101EF000080102E0E16B41F01001E163816921F02A
:101F000070018161E06B002805D0012084F8380061
:101F10002046FFF747FF10BDE16B41F02001ECE7E1
:101F2000E16B41F04001E8E7E16B41F08001E4E75B
:101F3000E16B41F48071E0E7030000040003000856
:101F4000000003102DE9F041040003D094F838009C
:101F500018B105E00120BDE8F081204600F094F8BA
:101F6000022084F838002068016821F00201016035
:101F70002068016841F00101016001F093FB002538
:101F800000F10A07032603E001F08CFBB84263D29C
:101F900020684068C007F7D020684168C90768D04A
:101FA000A1690129016840D021F080010160E06948
:101FB0000128206801683BD021F040010160206ABF
:101FC00001282068016836D021F020010160606A94
:101FD00001282068016831D021F010010160A06A59
:101FE0000128206801682CD021F008010160E06A16
:101FF00001282068016827D021F004010160D4E99C
:1020000002010843D4E90412114308436168491EE0
:1020100008432168C8612068016821F0010101605E
:1020200001F040FB00F10A071BE041F08001BDE731
:1020300041F04001C2E741F02001C7E741F0100143
:10204000CCE741F00801D1E741F00401D6E700BF39
:1020500001F028FBB84204D304F8386F0320657000
:1020600079E720684068C007F2D120684068C0075F
:1020700003D0042084F838006CE7E563012084F87D
:102080003800002067E7000000B50068184985B0F7
:1020900088422BD11748016841F0007101604FF46C
:1020A00040700090022001900020029003200390D5
:1020B000092004906946104801F0D8F90022052152
:1020C000132001F083FB132001F075FB0022062191
:1020D000142001F07BFB142001F06DFB002211465F
:1020E000152001F073FB152001F065FB05B000BD64
:1020F00000640040403802400004024010B590F8EF
:102100003820012A01D0122A39D190F83920012A29
:1021100035D0012280F8392090F83820122A29D0B1
:102120005FF0220280F838200022C26303685C69F5
:1021300044F480745C6103685C6944F400745C611D
:1021400003685C6944F480645C6103685C6944F41E
:1021500000645C6103685C6944F400445C6180F87D
:10216000392000680029416906D041F01001416121
:10217000002010BD3222D5E741F00201F7E702202E
:1021800010BD000030B4416B0A4A0B68A3F58064AF
:102190006A3C03D10C7EC4F340041470A3F5806440
:1021A0004B3C03D1097FC1F38011517030BC002139
:1021B000FFF7A4BF000000202DE9F05F044690F86F
:1021C00039000E46012811D04FF0010984F83990EA
:1021D00094F8380022280CD05FF0120084F8380000
:1021E00021688868400106D500250DE00220BDE881
:1021F000F09F3220F2E78868000101D5012503E055
:102200008868C0005DD502254FF4C07000EB051052
:102210000A5802F001020A50216B8A68EAB3276863
:102220003B581343CA68496842EAC1010B433B501B
:10223000216B0A7C02F00F020A614FF4C27122681E
:1022400001EB0511535823F00F03535022685358E4
:10225000276B3F693B435350216B91F820304A690B
:1022600042EA03628B8B89691B0443EA01210A431A
:102270004FF4C473216803EB0513CA50216B91F826
:1022800030304A6A42EA03628B8D896A1B0443EA52
:1022900001210A434FF4C67300E017E0216803EB05
:1022A0000513CA5021680A5842F001020A5001F091
:1022B000F9F900EB06080027DFF874A0DFF874B026
:1022C00018E0042084F83800012090E722681358B1
:1022D000CF6809883B4343EA41511150A8E7701C7D
:1022E00008D001F0DFF9404504D3032004F8380F8B
:1022F00067707CE78DB12068012D816812D00E488F
:1023000088430028EBD194F8380032280DD0484695
:1023100004F8380F0020677069E7206881682AEAAE
:102320000100EEE72BEA0100EBE72220F0E70000D6
:10233000030000040003000800000310704770470A
:102340007047704770B54379012B19D0012646714B
:10235000022303710B4D2C6840F6FE7393409C439F
:10236000D1E900310B43934023432B602968C023FC
:10237000934099432960067100214171084670BD60
:10238000022070BD0074004070477047704710B560
:10239000040002D0207910B104E0012010BD2046D5
:1023A00000F008F802202071002020610120207137
:1023B000002010BD70B5054600681F4986B08842F0
:1023C00037D11E48016841F0005101601B481038A8
:1023D000016841F0010101601020009003200026F7
:1023E000CDE901066946164801F040F8164C15483B
:1023F00020604FF0606060604020C4E90206000188
:102400002061400060618000A0614011E0614002F5
:10241000C4E908060120A062204600F06FFFAC600E
:10242000002205211020A56301F0D0F9102001F051
:10243000C2F906B070BD0000007400404038024090
:102440000000024088600240481200202DE9F0415F
:1024500004460D46174661790022069801292FD0BF
:102460000126667102212171D4F808C02F49CCF8E9
:102470003C10D4F808C02E49CCF84010D4F808C05D
:102480002C49CCF84810D4F80CC02B49CCF83C109F
:10249000D4F80CC02949CCF84010D4F80CC0284915
:1024A000CCF848102168D1F800C065B14CF0805CD0
:1024B000C1F800C000B3042821D0082824D121E0AD
:1024C0000220BDE8F0814CF4805CC1F800C020B16E
:1024D000042805D0082808D105E02268083204E065
:1024E00022680C3201E0226810322068016841F451
:1024F00000510160A0680DE02268143204E02268F7
:10250000183201E022681C322068016841F0005155
:102510000160E068394600F029FF20680168AE409C
:102520003143016000206071CBE700008312000896
:10253000D3120008A312000893120008DD1200084D
:10254000BB1200082DE9F05FFD490746FC4DFD4E2A
:1025500000684A15DFF8E893DFF8E8A3DFF8E0B396
:102560009302F84C483D60364FF0007E09F118099F
:102570000AF1180AABF1300B884224D9F0495439DA
:1025800027E0484534D100BF4FF0080C0AE0DFF8DF
:10259000B0C30CF1300C604535D1944602E09C4646
:1025A00000E0F44611EA0C0F70D0016849076DD5C0
:1025B000016821F004010160E1493868884266D968
:1025C000DF494C3969E0DF49A831884203D9DC4949
:1025D0005839096805E0DB4948318842DA49F8D9B9
:1025E0004968A042D0D0A842CED0B042CCD0C8E7F3
:1025F0005045D2D05845D0D0DFF848C30CF1780C04
:102600006045CAD0C3E7DFF83CC30CF1300C60452D
:10261000C5D0DFF82CC3ACF1180C6045BFD0DFF893
:1026200024C30CF1900C6045B9D0DFF814C30CF151
:10263000480C6045B5D1B2E7082222E0504520D0D1
:1026400058451ED0DFF8FC8208F17808404518D0C4
:10265000DFF8EC8208F13008404512D0B94A303238
:1026600090420BD0B64A183A904207D0B54A903201
:10267000904203D0B24A4832904201D11A4600E05B
:1026800072464CEA020CC1F800C07DE08AE0AD4918
:10269000A83188420CD9AA495039D1F800C0A042CB
:1026A000CAD0A842C8D0B042C6D04845C6D1C3E7B8
:1026B000A44948318842A44933D9D1F80CC0A0427A
:1026C00005D0A84203D0B04201D0484501D108222C
:1026D00022E0504520D058451ED0DFF8688208F12E
:1026E0007808404518D0DFF8588208F13008404596
:1026F00012D0944A303290420BD0914A183A90420C
:1027000007D0904A9032904203D08D4A483290428E
:1027100001D11A4600E072464CEA020CC1F80CC026
:1027200032E0D1F808C0A04205D0A84203D0B042A0
:1027300001D0484501D1082222E0504520D058451B
:102740001ED0DFF8008208F17808404518D0DFF885
:10275000F08108F13008404512D07A4A3032904278
:102760000BD0774A183A904207D0764A903290427E
:1027700003D0734A4832904201D11A4600E07246B3
:102780004CEA020CC1F808C0F86C40F00100F86493
:10279000042087F83500002087F83400B96C09B1AF
:1027A00038468847694A66493868D3114FF4800E25
:1027B000884224D96249543927E0484534D19446A7
:1027C0000CE0DFF87CC10CF1300C604537D100BF64
:1027D0004FF0400C02E09C4600E0F44611EA0C0F7A
:1027E0007ED0416909067BD5416921F080014161B4
:1027F00053493868884253D951494C3956E05149B8
:10280000A831884203D94E495839096805E04D4935
:10281000483188424C49F8D94968A042CFD0A842F3
:10282000CDD0B042CBD0C8E75045D1D05845CFD05D
:10283000DFF810C10CF1780C6045C9D0C1E7DFF8B2
:1028400004C10CF1300C6045C5D0DFF8F4C0ACF128
:10285000180C6045BFD0DFF8ECC00CF1900C60455F
:10286000B9D0DFF8DCC00CF1480C6045B5D1B2E757
:10287000A8421FD0B0421DD048451BD0504509D0BA
:10288000584507D02F4A7832904203D02C4A303234
:10289000904214D140220DE01A460BE0724609E046
:1028A0002849A83188421CD925495039D1F800C09F
:1028B000A042DDD14CEA020CC1F800C07BE0214A05
:1028C00030329042E8D01E4A183A9042E4D01D4A75
:1028D00090329042E0D01A4A48329042DED1DBE793
:1028E00077E0184948318842174937D9D1F80CC0E8
:1028F000A0422ED0A8422CD0B0422AD0484528D0A1
:10290000504509D0584507D00E4A7832904203D03E
:102910000B4A3032904201D140221AE0094A30324B
:1029200090420BD0064A183A904207D0054A90329E
:10293000904203D0024A4832904209D11A4608E038
:1029400058640240106002400060024001008000B4
:1029500072464CEA020CC1F80CC02CE0D1F808C059
:10296000A04224D0A84222D0B04220D048451ED058
:10297000504507D0584505D0FE4A904202D0FE4A45
:10298000904201D1402212E0FA4A483A90420BD0DC
:10299000F94A483A904207D0F64A1832904203D09A
:1029A000F54A1832904201D11A4600E072464CEACC
:1029B000020CC1F808C0F86C40F00200F864042072
:1029C00087F83500002087F83400B96C09B1384623
:1029D0008847E94938683039E84A8B154FF4802E2A
:1029E000884223D9E449843926E0484533D19446C6
:1029F0000AE0DFF884C3604536D19C4604E0F44623
:102A000002E000BF4FF0807C11EA0C0F7DD001681E
:102A100089077AD5016821F002010160D64938683A
:102A20003039884251D9D4497C3954E0D1493031C8
:102A3000884203D9D0498839096805E0CD49303941
:102A40008842CF49F8D94968A042D0D0A842CED018
:102A5000B042CCD0C9E75045CFD05845CDD0DFF8F3
:102A600014C36045C9D0C4E7DFF814C30CF1400CAF
:102A70006045C4D0DFF800C3ACF1480C6045BED05F
:102A8000DFF8F0C20CF1180C6045B8D0DFF8E8C2EE
:102A90000CF1180C6045B5D1B1E7A8421FD0B04287
:102AA0001DD048451BD0504507D0584505D0B14AE8
:102AB000904202D0B04A904216D11A460FE07246B8
:102AC0000DE000BF4FF0807209E0AA493031884222
:102AD0001CD9A9498039D1F800C0A042DDD14CEA07
:102AE000020CC1F800C073E0A54A40329042E6D023
:102AF000A14A483A9042E2D09E4A18329042DED033
:102B00009D4A18329042DDD1D9E76FE099493039BA
:102B100088429B492ED9D1F80CC0A04225D0A842AA
:102B200023D0B04221D048451FD0504507D058454A
:102B300005D0904A904202D08F4A904201D11A4665
:102B400013E08F4A403290420BD08B4A483A904271
:102B500007D0884A1832904203D0874A18329042F0
:102B600001D1724601E04FF080724CEA020CC1F8CC
:102B70000CC02DE0D1F808C0A04225D0A84223D037
:102B8000B04221D048451FD0504507D0584505D008
:102B9000784A904202D0784A904201D11A4613E016
:102BA000774A403290420BD0734A483A904207D05D
:102BB000704A1832904203D06F4A1832904201D1C5
:102BC000724601E04FF080724CEA020CC1F808C076
:102BD000F86C40F00400F864042087F83500002009
:102BE00087F83400B96C09B138468847624B3868B9
:102BF000303B19158A024FF0806E984220D95E4B07
:102C0000843B23E0484530D14FF0100C08E0DFF85A
:102C100068C1604532D18C4602E0944600E0F4463B
:102C200013EA0C0F7AD003681B0777D503685B03A0
:102C300075D5514B303B98425FD94F4B7C3B62E09E
:102C40004C4B3033984203D94B4B883B1B6805E013
:102C5000484B303B98424A4BF8D95B68A042D3D0EE
:102C6000A842D1D0B042CFD0CCE75045D3D05845C0
:102C7000D1D0DFF800C16045CDD0C8E7DFF800C192
:102C80000CF1400C6045C8D0DFF8ECC0ACF1480C4A
:102C90006045C2D0DFF8DCC00CF1180C6045BCD038
:102CA000DFF8D4C00CF1180C6045B8D1B5E710219D
:102CB0001EE050451CD058451AD0DFF8B88040457A
:102CC00016D0DFF8B480404512D02D4940318842FB
:102CD0000BD029494839884207D026491831884203
:102CE00003D025491831884201D1114600E07146D0
:102CF0004CEA010CC3F800C07FE01E4B3033984211
:102D00000ED91D4B803BD3F800C0A042CFD0A842C3
:102D1000CDD0B042CBD04845CBD1C8E77CE08AE0EB
:102D2000144B303B9842164B38D9D3F80CC0A04214
:102D300005D0A84203D0B04201D0484501D11021AE
:102D400027E0504525D0584523D0DFF8288040455E
:102D50001FD0DFF8248040451BD00949403188420C
:102D600014D005494839884210D0024918318842A8
:102D70000CD007E0886002408864024004008000B4
:102D800000600240FA491831884201D1114600E042
:102D900071464CEA010CC3F80CC02EE0D3F808C011
:102DA000A04205D0A84203D0B04201D0484501D18D
:102DB00010211EE050451CD058451AD0DFF8B483CE
:102DC000404516D0DFF8A883404512D0E94948397C
:102DD00088420BD0E6494839884207D0E549183186
:102DE000884203D0E2491831884201D1114600E0FF
:102DF00071464CEA010CC3F808C038680168090341
:102E00004DD50068000303D55FF0410087F8350019
:102E1000396C09B138468847DFF854C34FF4006174
:102E20003868ACF1300C8A024FF0006E604577D9FB
:102E3000CF4B843BCEE00368DB0503D4036823F06B
:102E400008030360CA4B3868303B984228D9C84B06
:102E50007C3B2BE010211EE050451CD058451AD079
:102E6000DFF81083404516D0DFF80483404512D0C8
:102E7000C049483988420BD0BD494839884207D0FB
:102E8000BC491831884203D0B9491831884201D170
:102E9000114600E071464CEA010CC3F800C075E031
:102EA000B44B303398420CD9B14B803BD3F800C0BF
:102EB000A042CFD0A842CDD0B042CBD04845CBD154
:102EC000C8E7AC4B303B9842AB4B30D9D3F80CC081
:102ED000A04205D0A84203D0B04201D0484501D15C
:102EE00010211FE050451DD058451BD0DFF88482CB
:102EF000404517D0DFF87882404513D09E494031D5
:102F000088420BD09A494839884207D099491831EC
:102F1000884203D096491831884202D1114601E017
:102F200052E071464CEA010CC3F80CC02EE0D3F815
:102F300008C0A04205D0A84203D0B04201D0484505
:102F400001D110211EE050451CD058451AD0DFF8A1
:102F50002482404516D0DFF81882404512D08649B9
:102F6000403188420BD082494839884207D0814994
:102F70001831884203D07E491831884201D1114668
:102F800000E071464CEA010CC3F808C031203DE76F
:102F900048452ED14FF0200808E0DFF8D4814045A5
:102FA00030D1884602E0904600E0F04613EA080F70
:102FB00076D00368DB0673D503685B0371D5604583
:102FC0005DD96B4B7C3B60E06A4B3033984203D950
:102FD000674B883B1B6805E0664B303B9842664B6D
:102FE000F8D95B68A042D5D0A842D3D0B042D1D0A6
:102FF000CEE75045D5D05845D3D0DFF8788140454D
:10300000CFD0CAE7DFF8708108F140084045CAD048
:10301000DFF85C81A8F148084045C4D0DFF854814E
:1030200008F118084045BED0DFF8448108F11808BF
:103030004045BAD1B7E720211CE050451AD0584589
:1030400018D04C4CA04215D0494CA04212D04A494D
:10305000403188420BD046494839884207D045491B
:103060001831884203D042491831884201D11146B3
:1030700000E071464CEA010CC3F800C072E03D4B21
:10308000303398420ED93A4B803BD3F800C0A0426F
:10309000D1D0A842CFD0B042CDD04845CDD1CAE79B
:1030A000E6E075E0334B303B9842334B2DD9D3F8F3
:1030B0000CC0A04205D0A84203D0B04201D0484580
:1030C00001D120211CE050451AD0584518D0294C78
:1030D000A04215D0264CA04212D027494031884248
:1030E0000BD023494839884207D0224918318842F9
:1030F00003D01F491831884201D1114600E07146C2
:103100004CEA010CC3F80CC02CE0D3F808C0A04274
:1031100005D0A84203D0B04201D0484501D12021BA
:103120001CE050451AD0584518D0124CA04215D07A
:103130000F4CA04212D01049403188420BD00C49AC
:103140004839884207D00B491831884203D00849D2
:103150001831884201D1114600E071464CEA010C59
:10316000C3F808C038680168090307D4796C09E01E
:1031700088640240886002400060024000680003EA
:1031800076D5F96B002973D03846BDE8F05F084763
:103190000368DB0503D4036823F010030360386879
:1031A000604526D9524B2AE020211DE050451BD016
:1031B000584519D04F4CA04216D04D4C7C34A042FB
:1031C00012D04C49483988420BD0494934318842A1
:1031D00007D048491831884203D045499431884284
:1031E00001D1114600E071464CEA010CC3F800C061
:1031F00073E0404B303398420CD93D4B1B1FD3F842
:1032000000C0A042D0D0A842CED0B042CCD04845D9
:10321000CCD1C9E7374B303B9842374B2FD9D3F845
:103220000CC0A04205D0A84203D0B04201D048450E
:1032300001D120211EE050451CD058451AD02D4CFC
:10324000A04217D02A4C7C34A04213D02A494031E6
:1032500088420BD026493431884207D0254918319D
:10326000884203D022499431884202D1114601E0BC
:103270003CE071464CEA010CC3F80CC02DE0D3F8D9
:1032800008C0A04205D0A84203D0B04201D04845B2
:1032900001D120211DE050451BD0584519D0154CB7
:1032A000A04216D0124C7C34A04212D012494031B8
:1032B00088420BD00E493431884207D00D4918316D
:1032C000884203D00A499431884201D1114600E076
:1032D00071464CEA010CC3F808C0F86CF864112080
:1032E00087F83500002087F834004AE7BDE8F09FF2
:1032F0000C640240886002400060024070B5D0B1AA
:103300000221446A80F8351003681A6816490A4099
:10331000D0E901152943D0E90356354329434569CE
:10332000294385692943C5692943056A294311430E
:10333000042C02D005E0012070BDD0E90B2422430B
:103340001143196003685969426A21F0070111436A
:10335000042A01D1826A114359610021C16401210B
:1033600080F83510002070BD3F8014F070B5044621
:1033700090F8340001282DD0012084F83400022078
:1033800084F835002068056825F0010505602046B1
:10339000FDF7DAFF2068016841F010010160206844
:1033A000016841F0080101602068016841F00401F2
:1033B00001602068416941F0800141612068016835
:1033C00041F0020101602068016841F001010160E3
:1033D000002070BD022070BD044901B50868009A44
:1033E00010440A688242FCD308BD00003402002069
:1033F00070B5194886B0016800292AD10121016001
:103400001648016841F0010101604FF4F06000903E
:1034100002250024CDE901540C26CDE90346694676
:103420000F4800F023F84DF6B3000090CDE90154A9
:10343000CDE9034669460B4800F018F84FF43070A8
:103440000090CDE90154CDE903466946064800F0F5
:103450000DF806B070BD00000800002038380240AA
:1034600000100240000C0240001802402DE9F04F0D
:103470000022DFF8E8E101254FF0030B4FF00F0ABF
:103480000B6805FA02F42340A3427DD14E68022E58
:1034900001D0122E14D156070F694FEAD66C07FAE5
:1034A0000CF9D60800EB8606376A0AFA0CF827EA08
:1034B00008073762D6F820C04CEA090CC6F820C0CD
:1034C000D0F800C056000BFA06F72CEA070CC0F83B
:1034D00000C091F804C0D0F800800CF0030C0CFA86
:1034E00006FC4CEA080CC0F800C0D1F804C0BCF1DE
:1034F000010F08D0BCF1020F05D0BCF1110F02D0B2
:10350000BCF1120F1FD1D0F808C02CEA070CC0F88C
:1035100008C0D1F80CC0D0F808800CFA06FC4CEAC0
:10352000080CC0F808C0D0F804C02CEA040CC0F89D
:1035300004C0D0F804C00C79C4F3001494404CEAE1
:10354000040CC0F804C0C468BC43C4608C68B440B8
:10355000C6683443C4604C68E40079D5404C2668A2
:1035600046F4804626609407270F3E4C22F0030C59
:1035700064440AFA07F6D4F808C82CEA060CC4F822
:1035800008C8394EB04200E062E001D100262DE0CB
:10359000364EB04201D1012628E0354EB04201D16D
:1035A000022623E0334EB04201D103261EE0324E04
:1035B000B04201D1042619E0304EB04201D10526B7
:1035C00014E02F4EB04201D106260FE02D4EB0423E
:1035D00001D107260AE02C4EB04201D1082605E0B1
:1035E0002A4EB04201D1092600E00A26BE40D4F896
:1035F00008783E43C4F80868DEF8006074469E43CD
:10360000CEF80060154E361D37689F4337604F680F
:10361000FF0302D527681F4327604C68A40302D527
:1036200034681C4334600D4C083426689E43266081
:10363000261D37689F4337604F68FF0202D5276811
:103640001F4327604C68A40202D534681C433460D1
:10365000521C102AFFF414AFBDE8F08F003C01406B
:1036600044380240003001400000024000040240A3
:1036700000080240000C024000100240001402400A
:1036800000180240001C02400020024000240240BA
:103690000069084000D0012070470AB101837047DB
:1036A00041837047014800687047000034020020E1
:1036B0000C49086808B1401E08600B49086808B149
:1036C000401E08600949086808B1401E08600849A2
:1036D000086808B1401E086006480168491C01607E
:1036E0007047000004000020D0010020D401002019
:1036F00008020020340200200A4810B5016841F495
:1037000000710160016841F480610160016841F469
:10371000807101604FF47A5001F048FB00F004F82A
:10372000002010BD003C0240704770B515460E46A3
:10373000040003D094F8210010B104E0012070BD12
:10374000204600F020F8211D2068FEF768F9D4E932
:1037500000023146FEF751F9D4E900022946FEF78E
:103760003AF960681028206808D0016A41F0040125
:103770000162012084F82100002070BD016841F041
:1037800004010160F5E7FFF733BE00F01F020121DD
:1037900091404009800000F1E020C0F8801270479D
:1037A00000F01F02012191404009800000F1E0205B
:1037B000C0F88011704700F01F02012191404009BC
:1037C000800000F1E020C0F800117047F0B40E4B0B
:1037D0001B680C46C3F30223C3F10705042D00D96F
:1037E0000425191D072901D2002300E0DB1E012654
:1037F00006FA05F1491E214099409E40761E16406A
:103800003143F0BC02F0CCBA0CED00E0064900F008
:10381000070208684FF6FF03184040EA0220034AF7
:1038200010430860704700000CED00E00000FA054E
:10383000D0F8AC0303F096BDC1EBC10200EB8202ED
:10384000D0F8AC03D26B03F008BDC1EBC10200EBB2
:103850008202D0F8AC03D2F8E02103F04EBDD0F8DC
:10386000AC0303F081BD10B504460A460B0601F017
:103870007F00C0EBC00104EB810101D5303101E0D4
:1038800001F5EA710870D009487094F878030128AE
:1038900009D0012084F87803206804F04BFD002053
:1038A00084F8780310BD022010BD70B50A460446A6
:1038B000090602F07F0005D5C0EBC00104EB8101D1
:1038C000303105E0C2EBC20104EB810101F5EA7180
:1038D00000258D700870D009487094F8780301288D
:1038E00009D0012084F87803206804F0DAFE84F817
:1038F0007853002070BD022070BD01F07F01C1EB44
:10390000C10100EB8100B0F8EC0180B2704770B5E6
:1039100004460D460E0601F07F00C0EBC00104EB2B
:10392000810101D5303101E001F5EA71ED0908703E
:103930004D708A60CB7000D0C8800025022B00D16A
:103940000D7194F87803012809D0012084F87803D8
:10395000206803F057FF284684F8785370BD022092
:1039600070BD000070B504460E4601F07F00C0EB4C
:10397000C00104EB81010025C1F8E021C1E97A35DD
:1039800081F8D55181F8D401206901F5EA71012847
:1039900000D10A6194F8780301280DD0012084F841
:1039A00078037006227C206808D004F0DBFE00BF9C
:1039B00084F87853002070BD022070BD04F0B2FD81
:1039C000F6E770B50D460446090605F07F0005D5FB
:1039D000C0EBC00104EB8101303105E0C5EBC5014E
:1039E00004EB810101F5EA7101228A700870E8098F
:1039F000487094F87803012807D084F87823206869
:103A000004F081FE680602D007E0022070BD217C30
:103A100004F55F72206804F025FE002084F8780326
:103A200070BD70B504460E4601F07F00C0EBC001CA
:103A300004EB81010025CA63C1E91135012381F836
:103A4000313001F8300F2069012800D10A6194F863
:103A5000780301280BD084F878337006227C206824
:103A600007D004F07FFE84F87853002070BD022058
:103A700070BD04F057FDF6E72DE9FC5F04460068D1
:103A80000026054604F0C2FF002876D1206804F025
:103A9000E6FF002871D0206804F0E1FF800704D51C
:103AA0002068416941F002014161206804F0D7FFBC
:103AB000010304F55F704FF0010A4FF0080B00900E
:103AC0004ED5206804F0ADFF074647E0F80743D025
:103AD000F1B2206804F0BBFF8046C0072AD005EB96
:103AE0004610C0F808ABC6EBC60104EB810101F536
:103AF000EA79216901290DD1D9F80810D0F8100B05
:103B0000C0F31200091AC9F81810D9E902010144DA
:103B1000C9F80C10F1B22046FFF797FE2069012882
:103B200008D13EB9D9F8140020B920680121009AC3
:103B300004F098FD5FEA087006D5204600F096FA7A
:103B400005EB4611C1F808BB5FEAC86004D505EB78
:103B500046111020C1F8080B7F08761C002FB5D144
:103B6000206804F07CFF40034FF0400962D52068D4
:103B700004F050FF074600265AE07EE1F80755D0D2
:103B8000F1B2206804F054FF8046C00729D0D5F870
:103B900034180AFA06F08143C5F8341805EB4610CC
:103BA000C0F808A9C6EBC60004EB800030300190D5
:103BB0002069012805D10198C168806801440198F5
:103BC000C160F1B22046FFF737FE2069012808D115
:103BD0003EB90198406920B920680121009A04F09B
:103BE00041FD5FEA087003D505EB4611C1F808B93D
:103BF0005FEAC86004D505EB46111020C1F808093A
:103C00005FEA486003D505EB4611C1F808995FEA01
:103C1000887004D505EB46110220C1F808095FEA57
:103C2000086003D53146204602F0E6F87F08761C8E
:103C3000002FA3D1206804F012FF00280DDAD5F878
:103C4000040820F00100C5F80408204600F0CEF971
:103C50002068416941F000414161206804F0FFFEA5
:103C600000050BD5D5F80808C00702D0204600F0A3
:103C700019FA2068416941F400614161206804F04B
:103C8000EEFEC0044BD5D5F8040820F00100C5F8BD
:103C900004080021206804F089FE0020FF2106E0CE
:103CA00005EB4012C2F80819C2F8081B401C6268F4
:103CB0008242F5D84FF0FF30C5F81808D5F81C0837
:103CC00040F00110C5F81C08A06A60B1D5F884085E
:103CD00040F00B00C5F88408D5F8440840F00B000C
:103CE000C5F844080BE0D5F8140840F00B00C5F8FF
:103CF0001408D5F8100840F00B00C5F81008D5F8E6
:103D0000000820F4FE60C5F80008217C2068009AB5
:103D100004F0A8FC2068416941F4805141612068A9
:103D200004F09DFE80041CD5206803F0ABFD2068E4
:103D3000C16821F47051C160206804F049FE58B395
:103D40000320C4F81490E0602068C16841F4A051D9
:103D5000C160204600F03AF92068416941F4005101
:103D60004161206804F07BFEC00640D5206881696F
:103D700021F010018161D5F8208008F00F00C0EB20
:103D8000C00004EB8007C8F3434007F5EA77022838
:103D90000CD006281CD025E00020E0604FF4007015
:103DA00060612068C16841F41051D1E747F6F071B5
:103DB00018EA010F16D0C8F30A1290462846F9688F
:103DC00004F051FEF8684044F860B869404408E0E7
:103DD00008222846009904F046FEB969C8F30A1083
:103DE0000844B8612068816941F010018161206850
:103DF00004F035FE000707D5204600F0FBF82068E8
:103E0000416941F008014161206804F028FEC002C8
:103E100008D5F1B2204600F032F82068416941F43B
:103E200080114161206804F01AFE800208D5F1B2C9
:103E3000204600F028F82068416941F400114161F2
:103E4000206804F00CFE400007D52046FFF7F0FC88
:103E50002068416941F080414161206804F0FFFD24
:103E600040070AD520684568680702D52046FFF755
:103E7000F6FC2068416829434160BDE8FC9FD0F80A
:103E8000AC0303F0CBBAD0F8AC0303F0C9BA00001E
:103E9000F0B589B004004FF0000756D0022084F836
:103EA0007903204600F054F8206804F035FB04F153
:103EB000100120220E466846FCF782F994E80F00B4
:103EC00004F0E6F90021206804F0DDFD0121002561
:103ED000C7EBC70004EB800080F8311000F8307F9A
:103EE000C780C5708560C5607F1C45610F2FEFD30B
:103EF00000204FF4827200BFC0EBC00104EB8101CF
:103F000002EB800381F8D55181F8D401C88681F88D
:103F1000D751C1F8DC51C1F8E051C1F8E85121682E
:103F2000CD50401C0F28E7D3202231466846FCF7CD
:103F300047F994E80F0004F04DFA84F879532068AB
:103F400004F03BFA002009B0F0BD0120FBE70000BF
:103F5000F0B50068184985B088422AD11748016831
:103F600041F000510160016841F0804101600D2085
:103F70000224002503260A278DE8F100694610482F
:103F8000FFF774FA28208DE8F10069460D48FFF725
:103F90006DFA43F623408DE8F10069460A48FFF7C1
:103FA00065FA002211464D20FFF710FC4D20FFF767
:103FB00002FC05B0F0BD00000000044030380240B3
:103FC00000080240000002400004024010B5044610
:103FD000C068012100B90021D4F8AC0303F064FAF1
:103FE000D4F8AC03BDE8104003F02DBAD0F8AC0310
:103FF00003F048BAD0F8AC0303F04ABA10B504464F
:1040000090F87803012809D0012084F8780320680B
:1040100004F04FFD002084F8780310BD022010BD8D
:104020000068416200207047F0B500680023446AD0
:1040300031B1856A4FF4827604EB15444D1E0AE0D7
:1040400044EA024181620FE006EB8307C7595B1C1B
:1040500004EB1744DBB2AB42F6DB4FF4807303EBA7
:10406000810144EA024242500020F0BDD0F8AC2366
:1040700000F55F71104603F021BA10B5044690F8C0
:10408000780301280CD0012084F87803206804F01C
:1040900088F9206804F074FC002084F8780310BDCF
:1040A000022010BDD0F8AC0303F043BA2DE9F0476D
:1040B000DFF8B89105460E46D9F800006C4C00F0C8
:1040C00007016B48083406F0FF0841F28837B14217
:1040D0004DD289F80080D9F8001001F00701B142F3
:1040E00078D12978890705D52168AA6821F0F001DF
:1040F000114321602978C90725D06968012913D0A7
:104100000068022913D08007002863DA206820F0B5
:10411000030008432060FFF7C5FAC6196868012844
:104120000CD0022814D01DE000688003ECE7800169
:10413000EAE700BFFFF7B6FAB0425BD22068C0F3EF
:1041400081000128F6D166E0FFF7ACFAB04251D207
:104150002068C0F381000228F6D15CE0FFF7A2FAE4
:10416000B04247D2206810F00C0FF7D153E0297805
:10417000890705D52168AA6821F0F0011143216063
:104180002978C9073DD06968012913D00068022940
:1041900013D0800700283CDA206820F00300084391
:1041A0002060FFF77FFA0744686801280CD00228D6
:1041B00016D022E000688003ECE78001EAE700BF48
:1041C000FFF770FAB84215D22068C0F381000128C9
:1041D000F6D116E01DE000BFFFF764FAB84209D23D
:1041E0002068C0F381000228F6D10AE0FFF75AFAEE
:1041F000B84202D30320BDE8F087206810F00C0F0E
:10420000F4D189F80080D9F8000000F00700B0422E
:1042100001D00120EFE72878400705D52068E9683C
:1042200020F4E050084320602878000706D5206875
:10423000296920F4604040EAC100206000F022F8C3
:104240004FF47A71B0FBF1F0401EB0F1807F0AD2DA
:104250004FF0E0214861074AF02082F8140D002059
:104260008861072008610020C5E70000003C02408B
:10427000003802400FE000E001490120C8647047A7
:104280000000474200B500F017F808490968F0221D
:1042900092FAA2F201F0F001B2FA82F2D140044A9D
:1042A000515CC8400349086000BD00000838024066
:1042B000D49C00082002002030B51D48006810F092
:1042C0000C011C481AD04410042916D0082915D115
:1042D0001749091F0A6802F03F030A6802F48005C3
:1042E0004FF4800292FAA2F2B2FA82F2D54047F677
:1042F000C07204D0B4FBF3F003E0204630BDB0FB45
:10430000F3F00B680968134092FAA2F2B2FA82F253
:10431000D34058434FF4403292FAA2F201F44031B4
:10432000B2FA82F2D140491C4900B0FBF1F030BD35
:10433000083802400024F4002DE9F84F04460078C4
:10434000DFF8FC92BF4DC0074FF0000649D0D9F806
:1043500000104846C1F38101012908D00068C0F36C
:10436000810002280AD1281D0068400206D528686D
:10437000800336D56068012874D132E0DFF8C4A22A
:104380000AF1020A8AF80060FFF78CF941F28837D7
:1043900000EB070804E000BFFFF784F940457BD23B
:1043A00028688003F8D420798AF800006068012822
:1043B00003D0FFF777F9074410E0FFF773F90744DC
:1043C00004E000BFFFF76EF9B842E8D22868800326
:1043D000F8D506E0FFF766F9B842E0D22868800316
:1043E000F8D42078984F80074FF0010B43D5D9F8C7
:1043F0000010484611F00C0F09D00068C0F381008E
:1044000002280BD18E48001F0068400206D428689D
:10441000800730D5E0680128AED12CE0E068D8B143
:10442000C7F800B0FFF73EF900F1640804E000BFF0
:10443000FFF738F94045B2D228688007F8D52868D8
:10444000F82292FAA2F22169B2FA82F220F0F80080
:104450009140084328600EE03E60FFF723F900F129
:10446000640805E0EAE000BFFFF71CF9404513D2FD
:1044700028688007F8D42078000727D5DFF8C0A186
:10448000724861690AF16C0A89B1C0F800B0FFF79F
:1044900009F900F1640805E07EE000BFFFF702F9CA
:1044A000404579D2DAF800008007F7D50EE00660C3
:1044B000FFF7F8F800F1640804E000BFFFF7F2F836
:1044C000404569D2DAF800008007F7D42078400729
:1044D00052D55B483830016841F080510160DFF807
:1044E00070A1DAF8001041F48071CAF80010FFF7EB
:1044F000D9F800F1640803E0FFF7D4F840454BD247
:10450000DAF80000C005F7D5DFF8348108F1680853
:1045100088F80060FFF7C6F841F2883A50440090EE
:1045200005E000BFFFF7BEF8009988427ED2D8F8B8
:1045300000008007F6D4207A88F80000A0680128DF
:1045400003D0FFF7AFF8824412E0FFF7ABF88244E4
:1045500004E000BFFFF7A6F8504567D2D8F8000086
:104560008007F7D508E000BFFFF79CF850455DD203
:10457000D8F800008007F7D4A069E8B3D9F8001094
:10458000C1F38101022959D002283E6605D0FFF708
:1045900089F800F164044CE048E0FFF783F800F18B
:1045A000640603E0FFF77EF8B0423FD2286880013E
:1045B000F8D4D4E90710084347F6C07292FAA2F281
:1045C000616AB2FA82F29140A26A4FF0FF3303EBC4
:1045D00052024FF4403393FAA3F3B3FA83F39A40B1
:1045E000114308434FF0706292FAA2F2E16AB2FA04
:1045F00082F29140084300E01EE040F00051104874
:10460000001F0160C7F860B0FFF74CF800F16404C8
:1046100004E000BFFFF746F8A04207D228688001F7
:10462000F8D509E0FFF73EF8A04202D30320BDE829
:10463000F88F28688001F5D40020F8E70120F6E71C
:10464000083802400038024000004742800E4742CE
:104650000070004010B5040002D0607910B104E091
:10466000012010BD204600F009F82068016841F0E3
:104670000401016001206071002010BD0068044940
:10468000884204D10348016841F04001016070474D
:104690000008065034380240704790F851007047C7
:1046A00010B501688A684B6812F0010F8C68C3F37B
:1046B0008013C4F3801401D003B15CB18A68C2F3E3
:1046C00040034A68C2F3C01233B12AB1C16CBDE8DD
:1046D00010400847816CFAE74A68D243920642D4F8
:1046E0008A68D243D20609D490F8522042F00202DE
:1046F00080F852208A6822F010028A6001688A6875
:10470000D24392060AD490F8522042F0010280F877
:1047100052208A680A6822F040020A6001688A68AA
:10472000D24352060BD490F85120122A07D090F8A9
:10473000522042F0040280F85220CA688A688A68CF
:10474000D243D20506D490F8522042F0080280F8F5
:104750005220896890F85210002904D0012180F875
:104760005110FFF799FF10BD10B5040003D094F865
:10477000510010B104E0012010BD204600F036F8D1
:10478000022084F851002068016821F04001016096
:10479000D4E901010843D4E90312114308436169D4
:1047A0000843218B01F400710843E1690843216A41
:1047B0000843A16A084321680860A069042101EA4E
:1047C0001040616A0843216848602168E06A086116
:1047D0002068C16921F40061C161002084F85200A1
:1047E000012084F85100002010BD00002DE9F04F99
:1047F000044600684C4900250227032685B04FF087
:1048000040094FF4806B88424DD14848016841F41B
:1048100080510160C8464FF0010A4FF00509CDF8FC
:1048200008A0CDE90369CDE9008769464048FEF755
:104830001DFE8020CDE9000569463D48FEF716FEC5
:1048400008208DE88104CDE9036969463948FEF7FF
:104850000DFE3A4E38484FF0C0693060C6E9019508
:10486000C6E9035B7561B561F56135625F46304647
:104870007562FEF743FD6664B46350362E48C6F891
:104880000880C6E903577561B561F5613562483046
:104890007562C6E900093046FEF730FD2664B46350
:1048A00005B0BDE8F08F26498842F9D11F48001FA6
:1048B000016841F4004101604FF4E050CDE9000788
:1048C00002950620CDE9036069461E48FEF7CEFD3D
:1048D0001A4F1D48A037D846C7E90005BD60C7E993
:1048E000035B7D61BD61FD613D62C7E90956FD6203
:1048F00038463D63FEF702FD67641348BC635037DA
:10490000A83087E82102C7E903587D61BD61FD61D8
:104910003D62C7E90956FD6238463D63FEF7EEFC8D
:104920002764BC63BCE7000000300140443802400B
:10493000000002400004024010640240F410002015
:10494000003C004000080240106002402DE9F84F92
:10495000044690F851009A4601287DD1F1B3EAB39C
:1049600094F85000012877D0012684F85060222066
:1049700084F85100002584F85250A163A287E28791
:10498000A564E564A586E586A0684FF4004948451E
:1049900004D12068036823F480430360A06A4FF4C5
:1049A0000057B84209D12068036823F4005303601C
:1049B0002068036843F40053036060684FF4827812
:1049C000404501D1A06878B120680168490603D448
:1049D000016841F040010160E06800E001E0E8B1F9
:1049E00031E00120BDE8F88F84F8505013460A46A4
:1049F0002046CDF800A000F094F8F3E753460022DB
:104A00000121204601F022FC38BB2068C168A06B60
:104A1000421CA2630170E08F401EE087E08F0128F6
:104A2000ECD813E0534600220121204601F00EFC91
:104A300098B92068C068A16B0880A06B801CA06337
:104A4000E08F401EE087E08F0128EBD8A06AB842D3
:104A500007D12068016801E061E009E041F480517C
:104A60000160534600220121204601F0EFFB08B10E
:104A70000320B7E7E0680028206818D0C068A16B61
:104A80000880A06B801CA063E08F401EE087A06AB6
:104A9000B84216D1534600220121204601F0D6FB30
:104AA00058B114F8520F40F002002070E0E7C168DE
:104AB000A06B421CA2630170E6E72068C068ADF8F5
:104AC0000000606840450AD1A068484502D0B0F5B2
:104AD000806F04D12068016821F04001016084F8F2
:104AE000516020688168A26AC1F30011BA4212D1F4
:104AF00089B114F8521F41F0020104F81F1901682E
:104B000021F40051016054F8330C016841F4005164
:104B10000160657765E784F85050002062E7022065
:104B200060E72DE9F843044690F85100DDF8208055
:104B3000012801D022287ED169B162B15BB194F81D
:104B40005000012877D0012684F8506094F8510075
:104B5000012803D005E00120BDE8F883322084F865
:104B60005100002584F85250A263A387E387216394
:104B7000A386E386A564E564A06A4FF40057B842B3
:104B800009D12068016821F40051016020680168A2
:104B900041F40051016020680168490603D40168AE
:104BA00041F040010160E068B0F5006F206B0BD070
:104BB000411C216321680078C860E08E401E00041B
:104BC000000CE08659D06CE021680088C860206B3A
:104BD000801C2063E08E401E0004000CE08610D193
:104BE000A06AB84204D12068016841F48051016094
:104BF000434600220121204601F028FB002864D111
:104C000033E0434600220221204601F01FFB00282A
:104C10007ED1206B21680088C860206B801C2063D7
:104C2000E08E401E0004000CE08609D1A06AB84264
:104C300006D1206800E0B6E0016841F480510160CF
:104C4000434600220121204601F000FBE8BB20681A
:104C5000C068A16B0880A06B801CA063E08F401E21
:104C6000E087E08E0028CCD1C2E72068C068A16B45
:104C70000880A06B801CA06352E0A06AB84204D1F7
:104C80002068016841F480510160434600220121FF
:104C9000204601F0DBFAC0B92068C068A16B08703B
:104CA0003EE0434600220221204601F0CFFA60B9DF
:104CB000206B411C216321680078C860E08E401E93
:104CC0000004000CE08609D100E021E0A06AB842AF
:104CD00004D12068016841F48051016043460022FC
:104CE0000121204601F0B2FA90B92068C268A06B99
:104CF000411CA1630270E08F401EE087E08E002817
:104D0000CFD1434600220121204601F09FFA08B18D
:104D1000032021E72068C168A06B421CA2630170D8
:104D2000E08F401EE087A06AB8420FD143460022C0
:104D30000121204601F08AFA20B114F8520F40F008
:104D400002000EE02068C068ADF800004346012272
:104D50008021204601F07AFA28B114F8520F40F071
:104D600020002070D4E784F8516020688168A26A2E
:104D7000C1F30011BA4212D189B114F8521F41F0A7
:104D8000020104F81F19016821F40051016054F870
:104D9000330C016841F4005101606577DBE684F86B
:104DA00050500020D8E60220D6E6704710B5401ECD
:104DB000B0F1807F01D3012010BD4FF0E02460618D
:104DC0000F21601700F0ECFF0020A0610720206198
:104DD000002010BD10B5FFF7E8FF10BD7047704709
:104DE00030B590F83820012A20D0012280F83820F0
:104DF000022380F8393003685C6824F070045C603A
:104E000003685C680D682C435C6003689C6824F050
:104E100080049C6003689C6849680C439C6080F82F
:104E20003920002180F83810084630BD022030BDFE
:104E300010B5040003D094F8390010B104E001204B
:104E400010BD204600F00CF8022084F83900211D26
:104E5000206801F0BFFC012084F83900002010BD5B
:104E600010B5154B026815499A4203D10A6842F001
:104E700010020A600068124A90420AD1086840F0A5
:104E800002000860002211461D20FEF79FFC1D2035
:104E90000CE00C4A90420DD1086840F020000860F8
:104EA000002211463720FEF791FC3720BDE8104064
:104EB000FEF781BC10BD00000010004040380240E9
:104EC0000004004000140040022180F839100168FD
:104ED0000A6842F001020A60012180F839100020BE
:104EE00070470168CA6842F00102CA600068016840
:104EF00041F00101016000207047704770B5044621
:104F0000006801694FF00005C943890717D4C168DB
:104F1000C943890713D4016921F00201016101200D
:104F20002076206880698007204602D0FFF7E5FFE1
:104F300004E000F0A0F8204600F03EF92576206855
:104F40000169C943490718D4C168C943490714D442
:104F5000016921F004010161022020762068806946
:104F600010F4407F204602D0FFF7C7FF04E000F0B6
:104F700082F8204600F020F9257620680169C943AF
:104F8000090717D4C168C943090713D4016921F07F
:104F9000080101610420207620688069800720468E
:104FA00002D0FFF7AAFF04E000F065F8204600F009
:104FB00003F9257620680169C943C90618D4C16878
:104FC000C943C90614D4016921F010010161082008
:104FD00020762068806910F4407F204602D0FFF7D9
:104FE0008CFF04E000F047F8204600F0E5F8257655
:104FF00020680169C943C9070AD1C168C943C90703
:1050000006D1016921F001010161204600F0F2F8AA
:1050100020680169C94309060AD4C168C943090661
:1050200006D4016921F0800101612046FFF7D6FE18
:1050300020680169C94349060AD4C168C9434906C1
:1050400006D4016921F040010161204600F0D4F846
:1050500020680169C94389060CD4C168C94389061F
:1050600008D4016921F0200101612046BDE87040AB
:10507000FFF7B5BE70BD704770B5044690F83800B4
:105080000D4601280DD0012684F83860022084F8EE
:10509000390042B1042A18D0082A2AD00C2A4DD14E
:1050A00039E0022070BD206801F00EFC20688169A3
:1050B00041F0080181612068816921F0040181616A
:1050C000206881692A69114311E0206801F028FCF9
:1050D0002068816941F4006181612068816921F45F
:1050E00080618161206881692A6941EA02218161C8
:1050F00024E0206801F046FC2068C16941F0080105
:10510000C1612068C16921F00401C1612068C169E1
:105110002A69114311E0206801F064FC2068C1692C
:1051200041F40061C1612068C16921F48061C161FD
:105130002068C1692A6941EA0221C16184F83960A5
:10514000002084F8380070BD10B5040003D094F836
:10515000390010B104E0012010BD204600F00CF829
:10516000022084F83900211D206801F033FB012062
:1051700084F83900002010BD00B5006885B0B0F19A
:10518000804F12D10A48016841F0010101600420FA
:105190000090022001900020029003200390012043
:1051A000049069460348FEF761F905B000BD0000B0
:1051B00040380240000002407047000010B504462D
:1051C0000068012201F066FB08492068884202D08D
:1051D0000749884203D1416C41F400414164206891
:1051E000016841F001010160002010BD0000014094
:1051F0000004014000F0F0BD704700002DE9F041CF
:10520000082A02D90420BDE8F0810024031D2646A7
:105210005FF0030583F80864641C83F80C54E4B25F
:1052200003F58263082CF5D3002423464FF0010CCC
:105230001BE00D784F78072D01D9012424E01FB120
:10524000022F01D002241FE005EB851500EB0515A8
:1052500095F80CE42D1DBEF1010F14D05B1C85F8F0
:1052600008C485F80C74DBB2891C9342E1D300F5C5
:105270000053011D83F884615FF0000291F8085427
:10528000012D05D009E00524FCF7A2FA2046BAE773
:1052900093F884516D1C83F88451521CD2B201F5ED
:1052A0008261082AEAD3FCF70BFBEFE738B50C4C18
:1052B0002078002813D000F0EBFD00F0BBFC68461E
:1052C00000F0BEFB07A16846FAF7AAFF30B1074815
:1052D00000F0D0FB202801D000202070207838BDBD
:1052E000880100204F4E464900000000187E002033
:1052F0002DE9F0470446D0F88001994692460D46C4
:10530000202842DA50B32168A94201D9002011E0D7
:1053100000EB400104EB810151F80C1CA94209D3B8
:105320002946204600F033F800EB400154F82110E4
:10533000A9422AD0D4F8801101EB410204EB820289
:10534000A2F10C0308E01F46164697E8801186E894
:1053500080110C3A0C3B491E8142F4DC00EB40000A
:1053600004EB8000C0E9005A99F80010017299F826
:105370000110417299F80210817299F80310C172FC
:10538000D4F88001401CC4F88001BDE8F08730B536
:105390000446D0F8800123680022401E8B4201D9C8
:1053A000104630BD00EB400354F823308B42F8D355
:1053B0000DE0831A03EBD37302EB630303EB4305A6
:1053C00054F825508D4201D3184600E05A1C824201
:1053D000EFDB30BD30B50D46014614461046FFF7F1
:1053E000D6FF00EB400004EB800007C885E807000B
:1053F00030BD0021C0F88011704700007FB51A4809
:1054000018490124016000214160046184618160C8
:10541000C0E90914C162C16004254161C0E90745C2
:10542000FCF7A9FBCDE9005469460F480294FCF74C
:105430000FFB052000900220019069460A48FCF706
:1054400007FB062000900320019069460648FCF700
:10545000FFFA0720CDE9000569460348FCF7F8FA92
:105460007FBD000000220140AC37012070B5234809
:105470008AB02149016003214160A0F13401016338
:105480003C39416300244FF04071C0E902414FF4C0
:10549000A021C0E904148461C4610462446284628E
:1054A000C462FCF74FFD012548F64050CDE90645A2
:1054B000CDE902040594CDE900040E260494CDE95B
:1054C000085669460D48FCF7FBFBCDE9055448F644
:1054D00060100795CDE90204CDE900040494CDE9FC
:1054E000085669460548FCF7EBFB00210348FCF72A
:1054F00005FE0AB070BD0000006400409803002063
:105500001CB50B49094808600846FCF740FF00B18C
:10551000FEE70420009000200246019069460448FE
:10552000FCF710FF002800D0FEE71CBD007400400F
:10553000341200202DE9F0412948016841F400119E
:105540000160016841F480010160274825498025F8
:10555000002480E83200C4600461446100F11C0151
:10556000AE020427846181E8D0008462C4620463CF
:10557000FDF7C4FE1C481B495030183180E832004A
:10558000C4600461446100F11C01846181E8D000C1
:105590008462C4620463FDF7B1FE002211463A2022
:1055A000FEF714F93A20FEF706F9002211463B20D7
:1055B000FEF70CF93B20FEF7FEF8002211460B2007
:1055C000FEF704F90B20FEF7F6F800221146102032
:1055D000FEF7FCF8BDE8F0411020FEF7ECB8000043
:1055E0003038024010640240D80300202DE9F04317
:1055F000454885B0016841F001010160016841F052
:1056000002010160016841F004010160016841F09C
:1056100008010160016841F010010160016841F07A
:1056200020010160016841F040010160016841F022
:10563000800101604FF44070009034480024CDE9AF
:105640000104DFF8CC9069464846FDF70FFFFF20C4
:10565000CDE900042F4F694638460294FDF706FF56
:10566000022601250096CDE9015469464846039477
:10567000FDF7FCFE6803CDE9000569460294384653
:10568000FDF7F4FEA803CDE90005DFF88C8069463C
:1056900002944046FDF7EAFECDE9005469461F48F2
:1056A0000296FDF7E3FE04200090CDE9015469461F
:1056B00040460394FDF7DAFE0320CDE90240009551
:1056C000694601953846FDF7D1FE20200090CDE9CE
:1056D0000154694648460394FDF7C8FE78200090BF
:1056E000CDE9015469460E480394FDF7BFFEE80377
:1056F0000090CDE90154694640460394FDF7B6FE9B
:1057000005B0BDE8F0830000303802400000121000
:105710000008024000140240000402400000024061
:10572000001002400349024808600846FEF792BF95
:1057300000080650100000200C480B4901220160AF
:105740004FF48271416000218160C160C0E90412A0
:10575000520282611022C0E90721416281620A215E
:10576000C162FFF701B80000003001404C1000207A
:105770000C480B49012201604FF482714160002105
:105780008160C160C0E90412520282611022C0E946
:105790000721416281620A21C162FEF7E5BF000074
:1057A000003C0040A010002030B50F4889B04FF0F9
:1057B00080410024C0E900140125C0E902450461CC
:1057C000FFF7C2FC60200090CDE901540822694631
:1057D00005480494FFF750FC079407A90248089471
:1057E000FFF7FEFA09B030BDECC00020094810B543
:1057F00007490160002142F6DF624160C0E9021200
:105800000161FFF715FBBDE810400248FFF769BBD7
:105810000004004074C00020094810B50749016029
:1058200001214160002181604EF65F21C160FFF7D8
:10583000FFFABDE810400248FFF753BB00140040D8
:10584000B0C0002010B501220849094801F0E2FC6F
:105850000849074801F091FE0749054801F036FB69
:10586000BDE81040024801F0D5BE00002C00002029
:1058700078040020E002002018000020FEB5044655
:105880001A480D46164600781F4658BB204603F0BE
:10589000A3FB08B13020FEBD01A800903B46324674
:1058A0002946204603F052F911496020087011483A
:1058B0009DF8062002709DF8072002709DF80820D0
:1058C0000270D0200870642000F082FB03F00CFD11
:1058D0000400E0D100F09AF9010601D44120FEBD98
:1058E000C00701D00120FEBD2046FEBD880100207A
:1058F00000000170000002702DE9FE4F07462548A8
:10590000DDE90C560078884691469A4610B1012090
:10591000BDE8FE8F384603F05FFB08B13020F7E7A3
:105920001D48017A406BC90703D0B6EB500F02D86F
:1059300003E0B04201D23120EAE701AC53464A46C7
:1059400041463846009403F001F9144F8020387026
:10595000134A0020215C1170401C0528FADB00244A
:105960004FF0E04809E000BF15F8010B88F800008F
:10597000600601D1FBF794FB641CB442F4D3102001
:10598000387000F043F9000601D45120C0E7002030
:10599000BEE7000088010020187E00200000017092
:1059A000000002702DE9FE4F0746DDE90C45204856
:1059B0008846914600789A4610B10120BDE8FE8FD6
:1059C000384603F009FB08B13020F7E71948017A9F
:1059D000406BC90703D0B5EB500F02D803E0A842D3
:1059E00001D23120EAE701AE53464A4641463846E5
:1059F000009603F0ABF81049002008700F4B325CA2
:105A00001A70401C0528FADB3020087003F06CFC8B
:105A10000600D3D100214FF0E04203E0107804F8F3
:105A2000010B491CA942F9D300F0F0F83046C5E754
:105A300088010020187E0020000001700000027024
:105A400010B50A49044690200870094920200870C2
:105A50003C2000F0BDFA00214FF0E0421078605485
:105A6000491C0429FAD3002010BD00000000017079
:105A70000000027030B561490446A1B0EC20087006
:105A80005F4900200870642000F0A2FA03F02CFCAB
:105A9000050013D16A464FF0E04319781154401CB9
:105AA0008128FAD3032300222146684603F03AF8FE
:105AB00054A12046FAF7B4FB10B1202021B030BD2C
:105AC0009DF804109DF805002B2341EA0020E0809A
:105AD0009DF806109DF80700202241EA0020208151
